:100000000C9451030C946E030C946E030C94D92D34
:100010000C946E030C946E030C946E030C946E039C
:100020000C946E030C946E030C94F2250C94AE2584
:100030000C94EF260C946E030C946E030C946E03D8
:100040000C946E030C946E030C946E030C946E036C
:100050000C946E030C94CB260C946E030C946E03DC
:100060000C946E030C946E030C946E030C946E034C
:100070000C946E030C946E030C946E030C946E033C
:100080000C946E030C946E030C946E030C946E032C
:100090000C946E030C946E030C946E030C946E031C
:1000A0000C946E030C946E030C946E03076342363B
:1000B000B79BD8A71A39685618AEBAAB558C1D3CF9
:1000C000B7CC5763BD6DEDFD753EF6177231BF00BD
:1000D0000000803F05A84CCDB2D44EB93836A902F5
:1000E0000C50B9918688083CA6AAAA2ABE00000036
:1000F000803F05010902A10185020901A10005094E
:1001000019012908150025019508750181020501CD
:10011000093009311581257F950275088106093856
:100120001581257F950175088106050C0A38021591
:1001300081257F950175088106C0C005010980A150
:1001400001850319012AB700150126B7009501752D
:10015000108100C0050C0901A101850419012AA024
:1001600002150126A002950175108100C00660FFEE
:100170000961A1010962150026FF0095207508811B
:10018000020963150026FF00952075089102C0053D
:10019000010906A101050719E029E71500250195C8
:1001A000087501810295017508810105071900296B
:1001B000FF150026FF009506750881000508190146
:1001C0002905150025019505750191029501750315
:1001D0009101C000000000000000000000000000CD
:1001E000000000000000000000000000000000000F
:1001F000000000000000007E0F00D4FFFFFFC700DA
:1002000000007800000000000000002A2B280000F9
:1002100000000000000000000000000000002900B5
:100220000000002C1E3420212224342627252E36BF
:100230002D3738271E1F202122232425263333362D
:100240002E37381F0405060708090A0B0C0D0E0F80
:10025000101112131415161718191A1B1C1D2F3103
:1002600030232D350405060708090A0B0C0D0E0F67
:10027000101112131415161718191A1B1C1D2F31E3
:1002800030354C1E140A0500010101010101010174
:100290000102020202020202020203030303030339
:1002A0000303040404040404040505050505060607
:1002B00006060607070707070808080809090909C5
:1002C0000A0A0A0B0B0B0C0C0C0D0D0D0E0E0E0F6B
:1002D0000F0F1010111111121213131414151516FB
:1002E000161717181819191A1A1B1B1C1D1D1E1E6C
:1002F0001F202021222223242425262627282929BD
:100300002A2B2C2D2D2E2F303132323334353637E7
:1003100038393A3B3C3D3E3F4041424344454647E5
:1003200048494A4C4D4E4F50515354555658595ABE
:100330005B5D5E5F616264656668696B6C6D6F7062
:1003400072737577787A7B7D7E8082838587888AD1
:100350008C8E8F91939596989A9C9EA0A2A3A5A708
:10036000A9ABADAFB1B3B5B7BABCBEC0C2C4C6C904
:10037000CBCDCFD1D4D6D8DBDDDFE2E4E7E9EBEEBD
:10038000F0F3F5F8FAFDFF290014001A0008001533
:10039000001700A8002C00E1000400160007000967
:1003A000000A004A004E00E0001D001B0006001974
:1003B0000005004B004D002B00E200E3004600006A
:1003C00000215228004A004B004E000000000000AF
:1003D000000000000000002D00130012000C0018A7
:1003E000001C002B002800330233000F000E000D0C
:1003F000000B004D0052003100380037003600106D
:100400000011004F0050001F02E6004C002A0000BF
:1004100000225251004D004F00500000000000002B
:10042000000000000000003900390000003A003BE5
:10043000003C00010001000100000000003D003E02
:10044000003F0001000100010000000000400041E9
:100450000042000100010001000100010001000054
:100460000001000100010001000100000000000087
:10047000000000000000004D0052004A0020001F54
:10048000001E00010001004F005100500023002217
:1004900000210001000100DA00D900270026002514
:1004A0000024000100010001000100010001000022
:1004B000002352010001004C002A0000000000004F
:1004C0000000000000000029001E021F022002217F
:1004D00002220201000100E1001F020000000000F2
:1004E00000000001000100E000000000000000002A
:1004F000000000010001002B0001000100010000CC
:1005000000235201000100DB00DC000000000000BD
:10051000000000000000002D0227022602340234F1
:1005200000230201000100350230022F000000000C
:1005300000000001000100310230022F0200000023
:1005400000000001000100010001000100010000A5
:100550000001000100010001000100000000000096
:10056000000000000000002078237825782778001C
:100570000000000000000021782478267828780008
:1005800000D20000000000037E027E067E047E0092
:1005900000D200D1000000007E017E057E00000038
:1005A0000001000000D10000000000000000000079
:1005B00000000000000000D200CD00D100BD00A965
:1005C00000010000000000D000CE00CF00BE00AA55
:1005D00000D20000000000DA00D90000000000A8EE
:1005E00000D200D100000000000000000000000068
:1005F0000001000000D10000000000000000000029
:100600000000000000000009025B00030100A0FAE6
:100610000904000001030101000921110100012268
:1006200044000705810308000109040100020300DA
:100630000000092111010001222200070582032088
:100640000001070503032000010904020001030063
:100650000000092111010001227B0007058403200D
:1006600000011201000200000008EDFE030000017D
:100670000102000114036500740065005F00700052
:100680006F0069006E0074000000120359004D00F5
:10069000470057006F0072006B00730000000403F6
:1006A000090411241FBECFEFDAE0DEBFCDBF11E099
:1006B000A0E0B1E0E6E3F7E602C005900D92AA3DA6
:1006C000B107D9F723E0AAEDB1E001C01D92A5372B
:1006D000B207E1F70E9416270C945B330C940000DC
:1006E000482F209161039091280357E0291302C0FD
:1006F00080E0089530E0529FF001539FF00D1124E7
:10070000E75DFC4F8181681306C08081481303C0F8
:1007100085818111EECF2F5F3F4F2770E7CFE8ED46
:10072000F0E080818E7F80831092E2001092DA00E8
:100730001092E100A0EEB0E08C9181608C938081FA
:100740008F77808319BCA7EDB0E08C918E7F8C935E
:1007500080818F7E80831092100308952091E400A1
:100760003091E50095E6A9012091EC00822F81707F
:1007700020FF06C08091E80080FF06C080E0089559
:100780002091E80022FD1AC080911E03882389F081
:10079000853089F08091EB0085FD0FC02091E40049
:1007A0003091E50042175307F9F29150E1F684E0E9
:1007B000089582E0089583E0089581E0089580918E
:1007C000200387FF13C08091E80082FF06C080915C
:1007D000E8008B778093E80004C080911E038111AC
:1007E000F2CF089580911E038823D9F38091E80009
:1007F00080FFF8CF8091E8008E77ECCF982F909310
:10080000E900242F762F50E0891731F07091EC0029
:100810002091ED005091F00021FD07C09F5F9730BF
:1008200071F78093E90081E008953091EB003E7FFD
:100830003093EB003091ED003D7F3093ED0030912F
:10084000EB0031603093EB007093EC002093ED00EF
:100850005093F0002091EE0027FDE0CF80E0089556
:10086000B0E0A0E0E6E3F4E00C94FF2EC8EDD0E0A9
:1008700088818F7E8883E7EDF0E0808181608083CE
:1008800084E082BF81E08093100388818E7F88831B
:1008900002EE10E0F80110821092DA0081EEC82E0C
:1008A000D12CF601108288818F77888388818068B7
:1008B000888388818F7D888319BC10921E031092D3
:1008C0001F0310921D0310921C0390EEE92EF12CD1
:1008D000F70180818B7F808388818160888342E0FB
:1008E00060E080E00E94FE03F60180818E7F8083BD
:1008F000F801808181608083808188608083F70136
:1009000080818E7F8083888180618883CDB7DEB7C8
:10091000E8E00C941B2FFC018091260390912703A3
:1009200086179707A0F06115710529F49091E800EA
:100930009E779093E80090E06115710551F4911154
:1009400008C08091E80082FF34C080E00895BC01B7
:10095000F2CF80911E038823C1F18530C1F18091CF
:10096000E80083FD30C08091E80082FDEACF8091ED
:10097000E80080FFE1CF8091F3002091F200382F52
:100980006115710519F02830310558F091E02830D3
:10099000310509F090E02091E8002E772093E800DF
:1009A000CBCF81918093F100615071092F5F3F4F50
:1009B000E7CF80911E03882341F0853041F080917C
:1009C000E80083FFBECF81E0089582E0089583E0D0
:1009D000089580911303089587E797E7909301089E
:1009E0008093000888E19AE00FB6F894A895809368
:1009F00060000FBE90936000FFCF9C014FB7F8944A
:100A000080910C0390910D03A0910E03B0910F0300
:100A10004FBF821B930B08952FB7F89460910C037E
:100A200070910D0380910E0390910F032FBF0895D5
:100A30002FB7F89480910C0390910D03A0910E03B1
:100A4000B0910F032FBF0895DC01FB0111969C911B
:100A500011978181981322C012968C911297882346
:100A600019F0928189131AC013968C9113978823D9
:100A700019F09381891312C015968C9115978823CC
:100A800019F0958189130AC014969C91992321F03D
:100A900081E02481291303C080E001C081E08170DE
:100AA0000895A3E0B0E0E7E5F5E00C94052F209170
:100AB000090330910A0328173907A1F090930A031C
:100AC00080930903E0910703F0910803309751F0F8
:100AD00024E029839B838A830680F781E02DCE0161
:100AE000019609952396E2E00C94212FA3E0B0E053
:100AF000ECE7F5E00C94052F2091050330910603F7
:100B000028173907A1F09093060380930503E0911D
:100B10000703F0910803309751F023E029839B836A
:100B20008A830680F781E02DCE01019609952396F0
:100B3000E2E00C94212FE0910703F0910803309735
:100B400039F022E0DC012C930480F581E02D099539
:100B50000895FC01680F791F8FEF91E3219182279F
:100B600028E030E087FF09C0880F8927215031092C
:100B7000C9F7E617F70791F70895880FF7CFFA013D
:100B8000811101C0FB01099508950895E1E0F3E0AA
:100B90001182828184608283089580916203982FFC
:100BA0009E7F29F4817082608093620308958C3067
:100BB000E8F381708A60F8CFAF92BF92DF92EF9234
:100BC000FF920F931F93CF93DF93082F162FE90106
:100BD000E42FF0E0E957FD4F611110C0E4915E2F62
:100BE0004E2F4983E8835A83DF91CF911F910F9154
:100BF000FF90EF90DF90BF90AF900895E62EF12C1C
:100C00004491D42EE42FF0E026E0829FC00111240D
:100C10002FEF30E0B9010E942C2F802F90E0880F39
:100C2000991F55E5569FD001579FB00D11248A1B7F
:100C30009B0B982F990F890F5901AE18BF08AE9ED4
:100C4000D001AF9EB00DBE9EB00D11245B2F189F3A
:100C500080011124012F11275901A01AB10AAE9E5B
:100C60008001AF9E100DBE9E100D11245901A81ACF
:100C7000B108AE9CC001AF9C900DBE9C900D11249C
:100C8000892F9927281B390B2E9FC0012F9F900D6C
:100C90003E9F900D1124E92F62307105A1F050F4B0
:100CA0006115710509F49DCF6130710581F0EB2F5D
:100CB000512F97CF6430710569F080F0663071056F
:100CC00009F48FCFF4CFE42F4B2F592F8ACFE42F85
:100CD000412F87CFEB2F542F492F83CF4B2F5D2DE3
:100CE000E12F7FCF299A089529980895909167015F
:100CF000882341F09F5F90936701109264011092E6
:100D0000630108959150F7CFECE5F1E0828591E021
:100D10008927828710861782089580916601811144
:100D20000CC09091BE0296959695969581E0209183
:100D30005D01921380E08170089581E0FCCF809185
:100D40006501811108C080916701811104C00E9472
:100D50008D068170089581E090E0FBCF0E94180518
:100D60009C019091A8028091A902982B21F03093C8
:100D70009E0220939D029091AA028091AB02982B33
:100D800021F030939C0220939B0286EA92E00E941D
:100D90009B05089580919A0280FD16C081FD16C0C2
:100DA00082FD16C0809199028823A1F0883280F4D8
:100DB00028E0829FC001112468E270E00E94402F69
:100DC000862F672B39F0089582E0089584E0089516
:100DD00088E0089581E0089580919A0280FD14C012
:100DE00081FD14C082FD16C080919802882381F095
:100DF0008E3180F420E5829FC00111246EE170E005
:100E00000E94402F862F089584E1089588E2089576
:100E100088E0089580E50895282F35EB2303C0016D
:100E2000112497FF04C080589109892F0895805894
:100E30009F4FFBCF80E008959091680292FF10C011
:100E400041E0282F2471243009F040E031E0282FC0
:100E50002871283009F030E0431711F02CE0822788
:100E600093FF10C041E0282F2471243109F040E0A5
:100E700031E0282F2871283109F030E0431711F0B4
:100E80002CE082273091690230FF10C051E0282FFA
:100E90002171213009F050E041E0282F28712830DD
:100EA00009F040E0541711F029E0822731FF10C00B
:100EB00041E0282F2171213109F040E031E0282F55
:100EC0002871283109F030E0431711F029E082271A
:100ED00094FD877E089582389105B9F1B0F481338D
:100EE000910509F47DC048F48932910509F46DC07B
:100EF0008A32910509F47BC008958533910509F480
:100F00005FC08933910509F10895833E9105D9F1B8
:100F100038F4803E910529F1823E910579F10895DA
:100F2000863E9105D9F1873E910509F43EC0843E85
:100F3000910541F52091690221FF24C0809168024A
:100F400084FD19C087EE90E0089520916802237017
:100F500009F05AC02091690223FF14C089E290E091
:100F600008952091680220FD38C03091690230FF59
:100F700009C024FF43C090E080E0089520916802FA
:100F800022FDF7CF08952091680222FD3AC03091EA
:100F9000690230FD39C024FFF5CFEDCF2091680202
:100FA00023FFF0CF24FDE7CFCDCF2091680223FDB2
:100FB0002EC03091690231FFEECF84EE90E00895AB
:100FC0002091680225FFDECFC9CF2091680225FD60
:100FD00021C02091690223FFD5CF89E390E0D2CFD1
:100FE0002091680226FFCECF8AE290E008952091FA
:100FF000680226FFC7CF81E390E0089583EE90E07A
:10100000089582EE90E0089580EE90E0089586EED7
:1010100090E0089585E390E008951F93CF93DF93C8
:101020000E946B07EC01C11580E5D807F0F5C115EA
:1010300080E4D80708F09CC0C03ED10520F5CD3C27
:10104000D10508F082C0C83AD10578F4C53AD10577
:1010500008F073C0C130D10519F1209709F1C430EF
:10106000D105F0F4D0E0C0E01BC0C33CD105D0F7FF
:10107000C85AD0E0CC0FDD1FCE58DE4F0990D88182
:10108000C02DD4640DC0C11580E2D80708F0D1C0CE
:10109000C11581E0D80708F05AC0C83ED10510F745
:1010A000CE01DF91CF911F910895C03682E5D80718
:1010B00018F5C03482E5D80708F06BC0C03282E56D
:1010C000D80708F05FC0C11582E5D80708F497C0BB
:1010D0002C2F2695269580E2289F900111248C2F95
:1010E0008370C1E0D0E002C0CC0FDD1F8A95E2F72B
:1010F000C22BD32BDD68D4CFC03A82E5D80760F489
:10110000C03882E5D80708F459C0CF71D0E0DC2F91
:10111000CC27C46FD06AC4CFC03C82E5D80708F49E
:1011200062C0C03E82E5D80708F09CCFDC2FCC27F8
:10113000CC27DF71C06FD06AB3CFC55AD0E0C15998
:10114000DE4FC881D0E0D064ABCFD065A9CF8D2F62
:101150000E941C07182FCE0199270E946B07C12FF0
:10116000D0E0DC2FCC27CC27DF71C82BD92B98CF30
:10117000CE0199270E946B07CC27DF70C82BD92B93
:10118000D06A8ECFCF71D0E0DC2FCC27C16FD06A70
:1011900087CF2C2F26952695277080E2289F9001D7
:1011A00011248C2F8370C1E0D0E002C0CC0FDD1F72
:1011B0008A95E2F7C22BD32BDC6872CF2C2F2695B1
:1011C0002695277080E2289F900111248C2F837030
:1011D000C1E0D0E002C0CC0FDD1F8A95E2F7C22B40
:1011E000D32BDA685DCF8C2F8F710E941C07C82F1C
:1011F000D0E0DC2FCC27CC27DF71D06251CF8C2FF1
:101200008F710E941C0755E0D695C7955A95E1F756
:10121000CF70D0E0DC2FCC27282F30E084FF05C032
:1012200044E0220F331F4A95E1F7C22BD32BD0693C
:1012300037CF8D2F8F710E941C07182FCE01992751
:101240000E946B07C12FD0E0DC2FCC27CC27DF71A9
:10125000C82BD92BD2CF80959091110398239093CE
:10126000110308958091610390912803981301C0A0
:1012700008958F5F8770FACF9A3080F5883070F5C7
:1012800048E0949F90011124820F932F911D682FA5
:10129000677023E0969587952A95E1F7FC01EE0F9C
:1012A000FF1FE80FF91FED50FE4F50E040E080E0D7
:1012B000219130E0062E02C0369527950A94E2F778
:1012C00021703327042E01C0220F0A94EAF7822BE3
:1012D0004F5F5F4F4330510559F7089580E00895FF
:1012E0009A3098F5883088F548E0949F9001112451
:1012F000820F932F911D282F277041E001C0440FCA
:101300002A95EAF723E0969587952A95E1F7FC015F
:10131000EE0FFF1FE80FF91FED50FE4F90E080E049
:1013200070E05191DF0111979B01082E02C03695A4
:1013300027950A94E2F72170219525272423252754
:101340002C9301968330910561F7089580932202D2
:101350000895982F92959F7011F0892F94E0282F6F
:101360002695269511F09E5F822F869509F09F5F46
:10137000892F089580E00895AEE1B0E0E2ECF9E055
:101380000C94012F4B8B5C8B6D8B7E8B8F8B988F8E
:10139000E98EFA8E802F0B8F1C8F2D8F3E8F07FDCD
:1013A0008D5F859585952C8D27FD2D5F2595259540
:1013B00096E0FE017396DE01179601900D929A95C4
:1013C000E1F75C896F894A8D388D082E000C990BE6
:1013D000830F911D37FD9A9580383FEF9307A4F155
:1013E000803891059CF5022E000C330B260F311D21
:1013F00067FD3A9520389FEF390754F120383105C1
:101400004CF5942F952B98872B878C8786E0FE01CF
:101410003796DE01119601900D928A95E1F786E0EC
:10142000FE013196DE011D9601900D928A95E1F73D
:101430002D853E854F85588969897A8980E090E0BD
:101440006E96E6E00C941D2F80E8CDCF8FE7CBCFD2
:1014500020E8D7CF2FE7D5CFE82FE295EF70F0E067
:1014600031A1282F2F7081E090E001C0880F2A95CC
:10147000EAF7382B31A392A18095892382A308959E
:10148000E82FE295EF70F0E031A1282F2F7081E076
:1014900090E001C0880F2A95EAF7982F9095932342
:1014A00091A392A1892B82A30895B0E0A0E0EBE57F
:1014B000FAE00C94FF2E7C016B0180916A0301E03D
:1014C00010E08A3010F40AE010E0C1E0D0E060E7FC
:1014D00073E0C701F6010995811104C021960C172C
:1014E0001D072CF4CDB7DEB7E8E00C941B2FCC9F82
:1014F0009001CD9F300D300D112490E080E045E348
:101500004A95F1F70000019682179307C1F7DFCFE4
:101510000F931F93CF93DF938B01EA0190911E03EA
:10152000943061F58093E9008FEF9091E80081504D
:1015300095FD06C095ED9A95F1F700008111F5CF64
:101540008091E80085FF1AC00E94AE03811111C08E
:101550008091E80085FD06C08091E8008E77809339
:10156000E800F2CFF80181918F018093F10021977B
:1015700079F78091E8008E778093E800DF91CF9132
:101580001F910F91089543E050E0BC0184E00E9458
:10159000880A089546E050E0BC0184E00E94880A71
:1015A0000895CF93DF93EC0148E050E0BC0181E067
:1015B0000E94880A88E0FE01A4E1B3E001900D9248
:1015C0008A95E1F7DF91CF910895239A27E030E0E3
:1015D00090E02A98AC01022E02C0559547950A94D6
:1015E000E2F740FF0EC02B9A4AE04A95F1F700C09F
:1015F0002A9A2150310968F785E18A95F1F70000B0
:1016000008952B98F1CFCF93C1E08D37910550F01D
:10161000CDE0863D26E0920728F46DE770E00E9459
:101620002C2FC62F0E94740689E90E94E50A8C2F90
:1016300080610E94E50A0E947206CF910895239866
:101640002B9898E080E02A9825E02A95F1F7000091
:1016500023B123FB222720F9880F822B2A9A25E029
:101660002A95F1F70000915071F70895CF930E94E9
:10167000740689E10E94E50A0E941F0BC82F25E02D
:101680002A95F1F700000E947206C0712DE7C29FF3
:10169000C0011124CF910895CF93DF930E94740667
:1016A00083E60E94E50A0E941F0BD82F0E941F0BA1
:1016B000C82F0E9472068D2FD7FD80689C2FC7FD12
:1016C0009068DF91CF910895ACE0B0E0EAE6FBE0EE
:1016D0000C94032F4F8358878B879C87162F072FD7
:1016E0000E944C0B811104C0911102C0902F812FD8
:1016F00089879A8786E0FE013796DE011196019070
:101700000D928A95E1F729813A814B815C816D8147
:101710007E8180E090E02C96E4E00C941F2F229ACA
:10172000239A219A0E9474068AEB0E94E50A8AE5B0
:101730000E94E50A0E9472062FE78FEA92E021508C
:1017400080409040E1F700C000000E944C0B0895DB
:1017500080912502811110C08091D8008061809312
:10176000D8008AE18A95F1F700C08091D90080FF06
:101770000AC081E08093250281E09091250291309A
:1017800009F080E0089582E0809325020E948F0393
:1017900010921E03F1CF0E94A80B882359F0E0910C
:1017A0000703F0910803309729F00190F081E02DB4
:1017B0000995089580E008950F931F930E94A80B48
:1017C000882329F00E940C051F910F9108950E9413
:1017D0000C0500916002109161022091620230912B
:1017E0006302600F711F821F931FEECF0E94DC0BFC
:1017F00008950E94A80B882319F00E9418050895E7
:101800000E94DC0BCB010895CF93DF93C9EAD2E0AD
:1018100060E0CE010E94DE2F2196C11584E0D8073A
:10182000B9F7DF91CF9108951F93CF93DF93122FD4
:101830008430E0F46A30D0F44830C0F490E1699F1D
:10184000E001112450E0440F551FC40FD51F90EA4A
:10185000899FC00DD11D1124632FCE0189960E944E
:10186000DE2F612FCE018A960E94DE2FDF91CF916D
:101870001F910895AF92BF92CF92DF92EF92FF92A5
:101880001F93CF93DF9387E8C82E83E0D82ED0E054
:101890007601C0E014C0F50125913491412F6C2FE1
:1018A0008D2F0E94140C82E0A80EB11C1F5F18300F
:1018B00091F780E1E80EF11CCF5FCA3019F05701B3
:1018C00010E0E9CFDF5F80EAC80ED11CD43001F709
:1018D000DF91CF911F91FF90EF90DF90CF90BF905D
:1018E000AF900895CF93C82F6FEF811165E285E225
:1018F00090E00E94DE2F6FEFC11166E086E290E07B
:101900000E94DE2F6FEFC11160E187E290E00E943C
:10191000DE2FCF91089580E00E94720C60E088E293
:1019200090E00E94DE2F0E943A0C0E94040C81E09D
:101930000E94720C08950F931F93CF93DF9384300E
:1019400030F56A3020F5483010F520E1629F8001C3
:10195000112450E0440F551F040F151F30EA839FD8
:10196000000D111D1124C80189960E94BA2FC82F9D
:10197000D0E0DC2FCC27C8018A960E94BA2F9E01A6
:10198000282BC901DF91CF911F910F91089590E00D
:1019900080E0F8CF462F7A3040F4683030F484305D
:1019A00020F4672F0E949B0C089590E080E008953A
:1019B000CF92DF92FF920F931F93CF93DF936C012F
:1019C0000091A50280912202082BC3E0D0E010E034
:1019D000FC2EC8010C2E02C0959587950A94E2F75B
:1019E00080FD0CC02197A0F7F12C8F2DDF91CF91B6
:1019F0001F910F91FF90DF90CF900895B6018C2F2B
:101A00000E94CA0C0E940D08019761F3EECFCF939C
:101A1000DF93EC010E94D80CBE010E94CA0C0E9408
:101A20000D08DF91CF910895FC0124812223C1F09C
:101A3000808191810E94070D92959F70963091F060
:101A400058F4925F9F70923058F4803F19F030F450
:101A5000883E30F481E008959A5FF4CF843FD1F35B
:101A600080E00895883EB0F3813FD1F7F3CFA6E040
:101A7000B0E0EDE3FDE00C94042F49835A834981E3
:101A80005A819923A1F0222391F0CA010E94D80C17
:101A9000182F682F89819A810E94700969817A8143
:101AA000812F0E94CA0C2696E3E00C94202FCA01D5
:101AB0000E943C09182FF2CF85E290E00E94BA2FD5
:101AC000853289F486E290E00E94BA2F863059F47C
:101AD00087E290E00E94BA2F91E0803109F090E017
:101AE000892F8170089580E0FCCF60916203669534
:101AF00070E041E050E08DE691E00E94972F892B45
:101B000019F481E0809302030E94F90B9093FC0288
:101B10008093FB0280910303846080930303089504
:101B2000609169018091620380FF20C0809168010B
:101B300043E0849FC001112481549D4F539A2BB1DF
:101B4000277F3BB138605FB7F894FC01649FE00DDC
:101B5000F11D1124BF0168177907D1F45FBF8FE52C
:101B600094E00197F1F700C00000089580916A01A8
:101B700090916B0123E0829FF0011124E154FD4F0D
:101B80008917A0F61182108212828F5F3396F8CFE8
:101B9000FC014191CF01E8E03BB9000000C047FFE4
:101BA0002BB9440F000000C000C000C02BB900C01A
:101BB000EA9591F7D0CF9091620390FF0EC090917B
:101BC0006A0120916B0133E0939FF0011124E154ED
:101BD000FD4F921718F00E94900D08958183608345
:101BE00042839F5F3396F5CFA3E0B0E0EAEFFDE0DC
:101BF0000C94032F8C018091620380FF34C0F801A4
:101C0000648170E090E080E00E945C3120E030E090
:101C10004FE753E40E947F302BED3FE049E450E46E
:101C20000E9485320E94F2320E94F9302BE43AE39E
:101C30004EE25FE30E94123020EF3BEF48ED52E4AA
:101C40000E9485320E942B31462F9E012F5F3F4F0D
:101C500060916403809163030E94DC054B8169817C
:101C60008A810E94DB0DF80184818F5F8483239633
:101C7000E4E00C941F2FE2E6F3E080818E7F808306
:101C80000E94C605E1E0F3E08281816082830E94C8
:101C9000900D0895B0E0A0E0E0E5FEE00C94FB2E8E
:101CA00049015A016B017C010E94CD058401A40108
:101CB0006A2D7B2D88E090E00E94F02F94014A2D40
:101CC0005B2DB601C70100E20E947C2F622F84E2E7
:101CD00090E00E94DE2FCDB7DEB7ECE00C94172F1A
:101CE000A3E0B0E0E6E7FEE00C94012FF82E062F0B
:101CF000142FE22E8091620380FF3FC09091630316
:101D00009F1108C090916403961304C090916503DD
:101D1000941729F090910303926090930303E82FA6
:101D2000E695F0E0EC53FE4F9081909301038E7F97
:101D3000823039F59E012F5F3F4F412F602F8F2D4D
:101D40000E94DC054B8169818A810E94DB0DF09243
:101D500063030093640310936503EE2071F02091F8
:101D6000620360916603709167033F2DA801809123
:101D70006803909169030E944A0E2396E6E00C9452
:101D80001D2F923021F710916503E1CFE2E6F3E0D9
:101D9000438128E0421B08F440E021E06281818118
:101DA0000E94700E0895E2E6F3E0438128E0420FBE
:101DB00008F44FEF21E0628181810E94700E089546
:101DC000E2E6F3E0628128E0621B08F460E021E0D3
:101DD000438181810E94700E0895E2E6F3E0628102
:101DE00028E0620F08F46FEF21E0438181810E94B7
:101DF000700E0895E2E6F3E0818121E04381628183
:101E000088500E94700E0895E2E6F3E0818121E09F
:101E100043816281885F0E94700E089580916603FD
:101E2000882319F0815080936603209162033091DA
:101E30006303409164035091650360916603709160
:101E4000670380916803909169030E944A0E089588
:101E500080916603833018F48F5F8093660320912E
:101E60006203309163034091640350916503609174
:101E700066037091670380916803909169030E94E3
:101E80004A0E08959091620390FF39C091708111BC
:101E900037C09260909362038091030381608093C6
:101EA0000303662391F02091620330916303409114
:101EB000640350916503609166037091670380919C
:101EC0006803909169030E944A0E609162036695CF
:101ED00070E041E050E08DE691E00E94972F892B61
:101EE000B1F00E94C60581E08093FE0220E040919F
:101EF000650360916403809163030E94700E0895EE
:101F0000863010F09A60C6CF880F982BC3CF0E94FE
:101F1000750DE9CF809162038695815009F485E0C3
:101F200061E00E94420F08958091620386958F5F61
:101F3000863008F081E061E00E94420F08958091B0
:101F4000620380FF08C0869582588F77833018F42B
:101F50000E94940F089561E082E00E94420F08956C
:101F6000E2E6F3E083E0808311828FEF8283838354
:101F70001482A1E0B3E012968C91129783601296BE
:101F80008C93758123E030E04FEF5FEF60E0868156
:101F900097810E944A0E0895EBE6F2E081E080838B
:101FA00094E0918382838383148240815181628192
:101FB00073818FE090E00E94F02F40E050E0BA0182
:101FC00083E190E00E94F02F0895E5E6F1E083E0E0
:101FD000DF011D928A95E9F7E1E6F1E084E0DF0197
:101FE0001D928A95E9F70895CF936FE972E083EB2C
:101FF00092E00E942405C82F882321F083EB92E011
:102000000E949B059091B40286E0E3EBF2E0DF01D1
:10201000282F1D922A95E9F79093B402AFE9B2E018
:1020200001900D928A95E1F781E0C11103C09111F1
:1020300001C080E08170CF910895662309F472C0D9
:102040008D3C41F40E94EC0681958093A9020E9488
:10205000AE0608958E3C19F40E94EC06F6CF8F3C34
:1020600031F40E94EC0681958093A802F0CF803D68
:1020700019F40E94EC06F8CF893D29F40E94CA06A3
:102080008093AA02E4CF8A3D21F40E94CA0681957A
:10209000F7CF8B3D31F40E94CA0681958093AB0245
:1020A000D6CF8C3D19F40E94CA06F8CF9FE2980F54
:1020B000983020F5282F215D330BA90121E030E075
:1020C00001C0220F4A95EAF79091A702922B9093B4
:1020D000A702815D21E030E0A90102C0440F551F35
:1020E0008A95E2F7CA012091B402662309F493C0ED
:1020F000822B8093B4020E94F40F08958D3D31F439
:1021000080919A02816080939A02A1CF8E3D21F442
:1021100080919A028260F7CF8F3D19F580919A02E3
:102120008460F1CF9091A8028D3C59F42091A902CE
:1021300027FF0DC01092A90291110BC010929802B6
:1021400008C08E3CB1F42091A90212169CF3992389
:10215000B1F09091AA022091AB02922B11F410924F
:102160009902482F415D550B4830510508F4B1CF15
:102170006ECF8F3C39F497FFEACF1092A80290916E
:10218000A902DACF803D19F41916BCF3E0CF2091F3
:10219000AA02893D29F41216D4F61092AA02D7CFCA
:1021A0008A3D19F427FFD3CFF8CF2091AB028B3DA6
:1021B00029F427FFCCCF1092AB02C9CF8C3D19F484
:1021C0001216CCF3C4CF2FE2280F283088F4282F22
:1021D000215D330BA90121E030E001C0220F4A95B7
:1021E000EAF720953091A70223232093A702AFCFCF
:1021F00020919A022E7F8D3D59F020919A022D7FD9
:102200008E3D31F08F3D09F0A2CF20919A022B7FB5
:1022100020939A029CCF809582236BCFCF93DF933C
:10222000D82F20915D0181E090E002C0880F991FB6
:102230002A95E2F780959095CD2FC8238C2F0E9488
:10224000A90990915C01833051F4992379F00E949F
:102250008D06811101C0DC2F10925C0105C0911127
:1022600005C081E080935C010E94E50F8D2FDF9116
:10227000CF9108950E940E118093A5020895909128
:10228000A50221E030E0F90101C0EE0F8A95EAF7DE
:10229000D90102C0AA0FBB1F6A95E2F7EA2B01C061
:1022A000220F4A95EAF7892F8E23E81305C0292BC0
:1022B000822F0E943A11089520952923F9CF21E019
:1022C00030E001C0220F8A95EAF720958091A5029F
:1022D00082230E943A1108959091BE02809589232D
:1022E0008093BE02282F277069F4891759F09091C6
:1022F000690292FF07C08695869586950E945F11B8
:102300001092BE02089521E030E001C0220F8A95AC
:10231000EAF78091A502822B0E943A110895A0E36A
:10232000B0E0E5E9F1E10C94012F0E94A80B8111C6
:1023300005C080E0E096E6E00C941D2F4091BA02C3
:102340005091BB026091BC027091BD022FB7F8940E
:1023500080910C0390910D03A0910E03B0910F0397
:102360002FBF481759076A077B0719F30E940C050E
:102370006093BA027093BB028093BC029093BD023B
:102380005091B9025093B4024091B3026091B502EA
:102390007091B6028091B7029091B8020E94640BCE
:1023A0002093B3023093B4024093B5025093B60227
:1023B0006093B7027093B8023093B9020E94A80BE1
:1023C000882309F4DAC086E0E3EBF2E0DE01179639
:1023D00001900D928A95E1F78091B60281959091D6
:1023E000B502919599878A8786E0FE013796DE01CE
:1023F000959601900D928A95E1F786E0FE01B596DB
:10240000DE01119601900D928A95E1F786E0FE01BA
:102410003196A3EBB2E001900D928A95E1F786E048
:10242000EDEAF2E0DE01179601900D928A95E1F750
:1024300086E0FE013796DE019B9601900D928A950B
:10244000E1F786E0FE01BB96DE01119601900D9248
:102450008A95E1F786E0FE013196ADEAB2E001909F
:102460000D928A95E1F70E94A80B882309F4C7C052
:1024700086E0E3EBF2E0DE01539601900D928A953F
:10248000E1F786E0EDEAF2E0DE01179601900D92A9
:102490008A95E1F7EF80F88409851A852B853C85BC
:1024A0004B895C896D897E898F89988D0E94BC09D2
:1024B0002D873E874F87588B698B7A8B86E0FE018C
:1024C0003D96DE01119601900D928A95E1F786E026
:1024D000FE013196A3EBB2E001900D928A95E1F7EF
:1024E00086E0E3EBF2E0DE01119601900D928A9511
:1024F000E1F780915C01882309F4B5C08091610106
:10250000909162010E94FD04209160012817190634
:1025100008F0A9C080916301909164010E94FD04BC
:10252000893C910508F49FC08C819B81892B9D81FA
:10253000892B9E81892B9A81892B91E009F490E067
:10254000909365010E949F061091A502882309F4CB
:10255000A3C00E94180590936201809361011092BC
:1025600064011092630180915D01111172C0882392
:1025700009F479C00E94831176C086E0E3EBF2E0B3
:10258000DE01179601900D928A95E1F786E0FE0133
:102590003796DE01599601900D928A95E1F786E013
:1025A000FE017996DE01119601900D928A95E1F770
:1025B00086E0FE013196A3EBB2E001900D928A9580
:1025C000E1F786E0EDEAF2E0DE01179601900D9268
:1025D0008A95E1F78091B00281959091AF02919533
:1025E00099878A8786E0FE013796DE015F96019023
:1025F0000D928A95E1F786E0FE017F9625CF86E071
:10260000EDEAF2E0DE01539601900D928A95E1F732
:1026100086E0E3EBF2E0DE011D9601900D928A95D3
:10262000E1F7ED84FE840F85188929893A894B8961
:102630005C896D897E898F89988D0E94BC092F8362
:10264000388749875A876B877C8786E0FE013796F3
:1026500038CF212F30E0082E02C0359527950A94F7
:10266000E2F720FF87CF86E0E6EAF2E0DE0111968E
:1026700001900D928A95E1F78091B4029A81892B9D
:102680008093B4020E94F40F81112CC08091AC029F
:1026900081701092AC024ECE80915D01111118C074
:1026A0008111E1CF80916101909162010E94FD044E
:1026B00020915E0130915F0128173907A0F68091C3
:1026C0005D010E945F111092620110926101CBCFF7
:1026D000212F30E002C0359527958A95E2F720FF3B
:1026E000C2CFE0CF81E090E0D3CF9091690292FB1E
:1026F000222720F9281779F080FB92F9909369023C
:10270000609168027091690284E090E00E94FC2F61
:1027100082E00E946C11089590E080E00E94C82F32
:10272000863E9E4F19F40E945C0D089580E0089546
:10273000B0E0A0E0EEE9F3E10C94002F7901C82F9E
:10274000880FDD0B41155105A9F0FE0193E0EE0F56
:10275000FF1F9A95E1F7E050FF4F818192818A5DDA
:102760009D4F208130E04217530708F49A01A901D8
:102770000E94B12FCE010E947F2ED82E8823D1F047
:1027800001151105B9F083E0CC0FDD1F8A95E1F743
:10279000FE01E050FF4F438150E00417150708F495
:1027A000A801C050DF4F6C817D816A5D7D4FC701FC
:1027B0000E94B12F8D2DCDB7DEB7E7E00C941C2F12
:1027C000ACE0B0E0E6EEF3E10C94032F88E0E2E643
:1027D000F3E0DE01119601900D928A95E1F7809168
:1027E000010390910203A0910303B0910403898730
:1027F0009A87AB87BC872B8540915802509159022C
:1028000060915A0270915B023FB7F89480910C037B
:1028100090910D03A0910E03B0910F033FBF841B55
:10282000950BA60BB70B84369105A105B10510F4E5
:102830002223C1F010E000E030E020E04CE050E066
:10284000BE016F5F7F4F85E00E949813882369F077
:102850000E940C05609358027093590280935A02AB
:1028600090935B021092030381E02C96E4E00C94B9
:102870001F2FA4E0B0E0EFE3F4E10C94032F4091AC
:1028800054025091550260915602709157022FB731
:10289000F89480910C0390910D03A0910E03B091D8
:1028A0000F032FBF841B950BA60BB70B11E08436CB
:1028B0009105A105B10518F10E94DC0B6E5F7F4FF9
:1028C0008F4F9F4F69837A838B839C8310E000E056
:1028D00030E020E044E050E0BE016F5F7F4F84E0D5
:1028E0000E949813182F882351F00E940C056093C2
:1028F0005402709355028093560290935702812F91
:102900002496E4E00C941F2FA1E0B0E0EAE8F4E1A3
:102910000C94FA2E762E4A015901680101E010E06C
:102920009E012F5F3F4F50E040E070E060E00E946A
:102930009813182F882309F440C0F4014081518175
:10294000628173812FB7F89480910C0390910D03ED
:10295000A0910E03B0910F032FBF841B950BA60B04
:10296000B70B84369105A105B10538F4B701C6014E
:102970000E94A9059981891701F18701950150E00D
:1029800040E070E060E0872D0E949813B82EB701F8
:10299000C6010E94A90511E09981981310E01B213E
:1029A00039F00E940C05F401608371838283938364
:1029B000812F2196EDE00C94162FA701B601C501D9
:1029C0000E94B12FF5CFACE0B0E0E9EEF4E10C9459
:1029D000012F86E0E82EF12C0FE312E09E01295F23
:1029E0003F4F4CE552E067E086E00E948414882364
:1029F00091F096E0FE013796DE01119601900D925E
:102A00009A95E1F796E0FE013196ADEAB2E00190C9
:102A10000D929A95E1F72C96E6E00C941D2FA5E017
:102A2000B0E0E5E1F5E10C94FF2E6B0185E0E82EC6
:102A3000F12C07E212E09E012F5F3F4F4CE452E081
:102A400061E080E00E948414882349F095E0FE0153
:102A50003196A7E4B2E001900D929A95E1F795E0E6
:102A6000E7E4F2E0D60101900D929A95E1F7259600
:102A7000E8E00C941B2F0E94A80B809351018091D9
:102A80005101882359F0109268018AE0809369010E
:102A90000E94A80B81110E94932D08958AE08093D3
:102AA0006801F4CFA8E0B0E0E8E5F5E10C94052F6B
:102AB00066EE7EEF90E080E00E94FC2F60E082E016
:102AC00090E00E94DE2F60E083E090E00E94DE2F25
:102AD0001092220260E074E184E090E00E94FC2FFA
:102AE00060E086E090E00E94DE2F6FEF87E090E0EC
:102AF0000E94DE2F40E050E0BA0188E090E00E94A2
:102B0000F02F60E084E290E00E94DE2F60E087E139
:102B100090E00E94DE2F60E08CE090E00E94DE2FCB
:102B200060E08DE090E00E94DE2F19821A821B8205
:102B30001C821D821E821F82188648E050E068E1D8
:102B400070E0CE0101960E94CE2F40E050E0BA0125
:102B500080E290E00E94F02F80E00E94720C0E94C0
:102B60008B0C0E94CC0F2896E2E00C94212F8091D0
:102B7000110390912102892B8093DC019091200216
:102B8000992391F0892B8093DC0120E08EED91E078
:102B9000FC013191CF0131112F5FF1E0843E9F079D
:102BA000B9F721111092200248E050E068E172E08C
:102BB0008CED91E00E94A42F892BA9F088E0ECED28
:102BC000F1E0A8E1B2E001900D928A95E1F7E09181
:102BD0000703F0910803309731F00280F381E02D74
:102BE0008CED91E009950895CF93C6E0EEEDF1E00C
:102BF000DF018C2F1D928A95E9F790E080E00E941A
:102C0000760590E080E00E945105109221020E941A
:102C1000B715E6EAF2E0DF011D92CA95E9F71092D6
:102C200098021092990210929A020E94AE06CF91D9
:102C30000895AAE2B0E0EFE1F6E10C94042F80E2FF
:102C400093E02091F100DC012D93CD01B3E08832B7
:102C50009B07B9F780912103833009F472C0B8F45F
:102C6000813009F449C0823009F4B5C08091E80090
:102C700083FF8DC280912003909121039A3008F048
:102C800086C2E92FF0E0E35AFC4C0C94542F8A30B2
:102C900009F490C08B3009F471C0893039F7809104
:102CA0002003813219F78091240390912503009726
:102CB00011F00297D9F68091E800877F8093E800B1
:102CC0008091E80082FF38C09091F3008091F2007B
:102CD000029731F48091F100813011F0863021F4B7
:102CE0008091F100809313038091E8008B778093AB
:102CF000E8000E94DF03BACF80912003813A09F0F7
:102D0000B5CF8091E800877F8093E800809124030D
:102D100090912503892B61F468E084E193E070E0F1
:102D20000E948B048091E8008B778093E8009ECF0F
:102D300060E090E080E0F3CF80911E038111C0CF6E
:102D400095CF80912003813A09F090CF80912403A0
:102D500090912503892B09F089CF8091E800877F26
:102D60008093E8008091E80080FFFCCF80916E01A5
:102D70008093F1008091E8008E77B9CF8091200395
:102D8000813209F073CF8091240390912503892B20
:102D900009F06CCF8091E800877F8093E8000E9463
:102DA000DF038091220380936E01109211030E9431
:102DB000F4155CCF80912003813209F057CF8091C8
:102DC000E800877F8093E8000E94DF03809123035F
:102DD000809312034BCF80912003813A09F046CFB4
:102DE0008091E800877F8093E8008091E80080FF71
:102DF000FCCF80911203BCCF803899F0823809F063
:102E0000C6C1809124038F70873008F0C0C18093C1
:102E1000E9008091EB0085FB882780F91092E9009A
:102E200006C080911C0390911D03911182609091C6
:102E3000E800977F9093E8008093F1001092F100F2
:102E40008091E8008E779FC1882309F48DC182307C
:102E500009F09DC180912203811190C180912403CA
:102E60008F702FEF280F263008F091C18093E90072
:102E70002091EB0020FF82C1933031F48091EB0070
:102E800080628093EB007AC19091EB009061909307
:102E9000EB0021E030E001C0220F8A95EAF7209391
:102EA000EA001092EA008091EB008860EACF81117D
:102EB0006EC1109122031F778091E3008078812BEF
:102EC0008093E3008091E800877F8093E8000E9470
:102ED000DF038091E80080FFFCCF8091E3008068F1
:102EE0008093E30082E0111183E080931E034FC1C1
:102EF0008058823008F04BC1209122033091230387
:102F00002C3DE3E03E07A1F583E08A838AE28983D2
:102F10004FB7F894DE01139620E03EE051E2E32F34
:102F2000F0E050935700E49120FF03C0E295EF706A
:102F30003F5FEF708E2F90E0EA30C0F0C7968D9320
:102F40009D932F5F243159F74FBF8091E800877F11
:102F50008093E8006AE270E0CE0101960E948B0443
:102F60008091E8008B778093E80011C1C096E7CF8D
:102F70008091240390912503432F55274330510519
:102F800009F44AC078F54130510509F47AC08BE55F
:102F900090E0E7E0F6E04230510509F0F8C02091FA
:102FA000E800277F2093E800209126033091270333
:102FB0008217930708F49C0140E02115310509F0C0
:102FC00065C0411163C08091E80082FDC9CF809146
:102FD0001E03882329F2853019F28091E80083FFCF
:102FE000F2CFBECF4132510509F43CC04232510507
:102FF00009F0CDC08330910508F0C9C0FC01EE0F87
:10300000FF1FE353FE4F0190F081E02D86539E4F4A
:10301000DC018C9190E01AC0332721303105D1F0CA
:103020002115310561F02230310509F0B0C0E4E727
:10303000F6E0E4918E2F90E0E4E7F6E007C0EEE9D9
:10304000F6E0E4918E2F90E0EEE9F6E0009709F4C7
:103050009EC0A5CFEAE8F6E0E4918E2F90E0EAE882
:10306000F6E0F4CF8330910508F091C0880F991FE6
:10307000FC01ED52FE4F0190F081E02D89E090E0DF
:103080008ECF82E190E0E2E6F6E089CF80911E03E8
:10309000882309F465CF853009F462CF8091E80078
:1030A00083FD5ECF8091E80082FD8DCF8091E800A6
:1030B00080FF83CF9091F3008091F20021153105BC
:1030C00019F08830910550F041E0089709F040E090
:1030D0008091E8008E778093E8006FCF4491409311
:1030E000F1003196215031090196E8CF803809F07E
:1030F0004EC08091E800877F8093E80080911F0395
:103100008093F1009DCE811142C0109122031230B4
:10311000F0F58091E800877F8093E80010931F030B
:103120000E94DF03112311F084E005C08091E300C9
:1031300087FDFACF81E080931E0342E061EC81E0DD
:103140000E94FE0342E261EC84E00E94FE0342E240
:1031500061EC82E00E94FE0342E260EC83E00E94A8
:10316000FE0380911E0313C080912203813079F405
:1031700081E0933009F080E080931D031092E90014
:103180008091E800877F8093E8000E94DF038091B0
:10319000E80083FF0AC08091E800877F8093E80001
:1031A0008091EB0080628093EB00AA96E3E00C94A0
:1031B000202F109211030E94F4152FEF84E39CE05E
:1031C000215080409040E1F700C0000088E19AE083
:1031D0000FB6F894A895809360000FBE909360009E
:1031E000FFCF882341F0809590912102892380931D
:1031F00021020E94B7150895882339F09091210289
:10320000982B909321020E94B7150895882321F0EE
:103210000E942B090E94B7150895882339F09091D8
:103220001103982B909311030E94B71508958823DA
:10323000D1F19CEF980F913A78F4EEEDF1E0919195
:10324000891303C0DF0111971C9291E0E43EF90756
:10325000B1F70E94B715089590E2980F983050F496
:10326000877091E001C0990F8A95EAF7892F0E9433
:103270002B09EFCF9BE5980F933028F490E080E086
:103280000E947605089598E5980F9B3128F490E008
:1032900080E00E945105089593E3980F933118F44C
:1032A00060E00E941D100895CF93DF93EC010E940F
:1032B0001719CE010E94BA099E01205E31092830FB
:1032C000310510F0CD2B29F40E940619DF91CF9122
:1032D00008950E94F118FACF0F931F93CF93C82F30
:1032E000882349F18CEF8C0F813AB8F50EED11E08F
:1032F00084EE91E0F8012191C21709F121E0E43E4A
:10330000F207C9F7EFEF80E0D8019D918D01C91751
:1033100081F0EF3F19F4911101C0E82F8F5F8630E3
:1033200099F7EF3F31F00E2E000CFF0BE452FE4FE9
:10333000C2830E94B715CF911F910F910895EEEDB2
:10334000F1E02191C21303C0DF0111971C928E1787
:103350009F07B9F70E94B715D5CF80E28C0F883050
:1033600068F4C77021E030E001C0220FCA95EAF787
:1033700080911103822B80931103DBCFEBE5EC0FDF
:10338000E33040F4F0E0E159FE4F808190E00E948C
:103390007605D1CFE8E5EC0FEB3150F4F0E0EE0F1D
:1033A000FF1FEE58FE4F808191810E945105C3CFCF
:1033B00083E38C0F833108F0BECF61E08C2F0E9435
:1033C0001D10B9CF1F93CF93DF93182FEB010E94ED
:1033D0006C19209739F4812F0E941719DF91CF9132
:1033E0001F9108958FE99FE00197F1F700C0000059
:1033F0002197EFCFCF93DF93EC010E94BA099E0192
:10340000205E31092830310510F0209741F40E94E8
:103410000D198C2F0E946C19DF91CF9108950E9495
:10342000FC18F7CF0F931F93CF93DF9381112DC01B
:10343000C0E0611101C0C1E08C2F94E00E94D80C63
:103440006C2F74E00E94CA0CEC01DD2710E000E054
:10345000C933D10511F400E510E0CE010E94FA193C
:103460000115110549F4CE010E94541980E0DF9145
:10347000CF911F910F9108958FE99FE00197F1F788
:1034800000C0000001501109EBCF813079F7C0E096
:10349000611101C0C1E08C2F99E00E94D80C6C2F03
:1034A00079E00E94CA0CEC01DD2710E000E0C9338E
:1034B000D10511F400E510E0CE010E94FA190115C2
:1034C000110589F28FE99FE00197F1F700C0000034
:1034D00001501109F4CFA1E0B0E0E1E7FAE10C946A
:1034E000FE2EEE24E394F12C0DE212E09E012F5FFC
:1034F0003F4F40E552E063E082E00E948414C82E12
:10350000882339F100E080E01DC0D0906502D00E24
:103510002D2D30E0A9014B575D4F7A01E1E0F0E03D
:10352000EC0FFD1FE00FF11D1081FA019081191BB6
:10353000B12E1B149CF0912F17FD90E0191B111157
:1035400018C00F5F909164020917F8F281110E9470
:10355000F60B8C2D2196E9E00C941A2FBA94F70102
:1035600080818F5F808360E08D2D0E94121A8C2DE8
:10357000E0CF1F5FF70180818150808361E08D2D56
:103580000E94121A8C2DDBCFA8E0B0E0EAECFAE141
:103590000C94F72E8C01DC0114968C9114978823DF
:1035A00009F4BDC021E04C9111965C9111971296DF
:1035B0006C91129713967C91139715969C910E948B
:1035C000370D7C01F801D580DD2009F44AC19757F9
:1035D0008038910508F045C1FFE0FE1508F48FC062
:1035E0008FEF93E00E94BA2F811189C0F9EAAF2EC4
:1035F000F2E0BF2EE1104DC0FE01339686E0DF0100
:103600001D928A95E9F7EAE04E2E7501BFEFEB1A9D
:10361000FB0AC5010E94BA2F89831A82882309F404
:103620006EC0813009F07FC06501E2E0CE0ED11C92
:10363000C7010E94BA2F8A83882309F460C09FEFD4
:10364000980F9330A0F5F3E0AF0EB11CC6010E94B5
:10365000BA2F8B83882309F452C01C82DE01119695
:103660007D01F7012081222381F2213009F09BC0E6
:1036700091818281913009F058C0F2E0EF0EF11C87
:1036800070E060E0893311F460E570E00E94E219B7
:1036900053C0A11424E0B20691F1C5010E94BA2FD3
:1036A000811101C0EA943FEFA31AB30AA3CF5601D8
:1036B0008430A1F672E0E72EF12C56012FEFA21A0A
:1036C000B20AC6010E94BA2FE1E0F0E0EC0FFD1F44
:1036D000EE0DFF1D8083882391F08C3741F4E2E0EA
:1036E000F0E0EC0FFD1FEE0DFF1D1082B7CF3FEF96
:1036F000E31AF30A650187E0E816F104F1F6809118
:10370000BE02877061F0D80115968C91882339F03C
:103710008091690282FF03C082E00E946C112896AA
:10372000E0E10C94132F570199CF923049F422E035
:10373000E20EF11C0E946C19FFEFEF1AFF0A91CF05
:10374000933031F432E0E30EF11C0E941719F4CFEC
:10375000943021F08FEFE81AF80AEECF92E0E90EEC
:10376000F11C30E020E0B7016F5F7F4FD701119669
:103770004C918053990B8A30910550F021503109BA
:10378000D8F2EFE9FFE03197F1F700C00000F6CF83
:10379000429EF001439EF00D11249C012E0F3F1F0D
:1037A000842F7B01E0CFE22FF0E0ED5FFD4F5490DE
:1037B000822F86958695869590E0FC01ED50FE4F10
:1037C00064902770712C022E02C0759467940A943D
:1037D000E2F731E063227724FC01ED51FE4F849043
:1037E000912C022E02C0959487940A94E2F7A1E0EE
:1037F0008A229924FC01ED52FE4FC490D12C02C0C4
:10380000D594C7942A95E2F7B1E0CB22DD24611468
:10381000710419F081EE0E946C198114910419F061
:1038200086EE0E946C19E9E370E060E05E1202C06F
:1038300060E570E0852D0E94E2198114910419F071
:1038400086EE0E9417196114710419F081EE0E942E
:103850001719C114D10409F46FCF70E060E08CE255
:1038600015CF80915C01882309F46AC020E2E2163A
:1038700022E5F20608F04EC0E11432E5F30608F046
:10388000AAC0E11480E4F806B8F5E11490E2F90664
:1038900008F0CDC0A0EEEA16F10450F0B8EEEB1639
:1038A000F10408F448C0E114E1E0FE0608F043C06A
:1038B000D80114968C91882309F43DC0C7018D5C12
:1038C0009109439708F49EC00E949F06811133C05E
:1038D000DD2059F080915D012091A5022111ADC03C
:1038E000882309F4B3C00E94E50F0E941805909345
:1038F0006401809363011FC0E114F0E5FF0608F046
:1039000085C0D80116968C91807F09F090C08F2DCC
:10391000992782C020E8E21622E5F206B8F530E6E3
:10392000E31632E5F30608F056C080E4E81682E5B7
:10393000F80608F45EC08091670187FD1092670168
:10394000F8012581C7019A9581159F4108F081C032
:10395000C70199278330AEE79A0709F4E3C08630A0
:10396000BEE79B0709F4EBC0F80125818530FEE72F
:103970009F0709F4ECC084309E4709F0C0C08091D5
:103980006F0291E0892780936F02B9C090ECE9162D
:1039900092E5F90680F2A0EEEA16A2E5FA0608F032
:1039A00087CF20915D01C7018F71992728171906CC
:1039B00011F68D2D0E947606F8018681807F803574
:1039C00009F0B9CF8581882361F180916701815029
:1039D00080936701B0CF20915D01C7018F71992756
:1039E0002817190609F0A7CFD110A5CF0E94840689
:1039F000A2CF20915D01C7018F7199272817190661
:103A000009F099CF8D2D0E94760695CFC70165E00C
:103A1000969587956A95E1F78F70992720915D01BA
:103A2000EDCF0E948406809167018F5FD1CFF801AE
:103A30008681807F09F47FCF3BCF30E0082E02C023
:103A4000359527950A94E2F720FF4DCF0E945F112C
:103A50004ACFE1143EE7F30669F081E0E8168EE70D
:103A6000F80671F192E0E9169EE7F90609F441C003
:103A7000C70170CF222309F180916B0290E001967B
:103A800065E070E00E942C2F80936B0240916B02E6
:103A900050916C0260916D0270916E028FE090E027
:103AA0000E94F02FE0916B02F0E0EE0FFF1FE65551
:103AB000FE4F808191810E94030B80E09EE754CFEE
:103AC0002223E9F080916C0290E0019666E070E0BC
:103AD0000E942C2F80936C0240916B0250916C02DB
:103AE00060916D0270916E028FE090E00E94F02F65
:103AF00006C080916D0290E00196211119C0D80195
:103B000015968C91811147C3809111038272F70140
:103B1000E052F847E531F10508F080C0E959FC4C66
:103B20000C94542F222359F380916D0290E0089653
:103B300069E070E00E942C2F80936D02CDCF22238C
:103B4000F1F280916E02819580936E02C5CF22239F
:103B5000B1F215CF8091620380FF1EC0282F2E7F07
:103B60002093620330916303409164035091650395
:103B70006091660370916703809168039091690377
:103B80000E944A0E0E94C6058091030381608093C3
:103B900003030E94900DB3CD81608093620361E0C6
:103BA00086950E94420FABCD4AE85FE064E97FE072
:103BB0000E94BF05A4CD44E95FE06AE87FE0F8CF4A
:103BC0004AEF5EE064E07FE0F3CF44E05FE06AEF5D
:103BD0007EE0EECF40EE5EE06DEE7EE0E9CF4DEEB2
:103BE0005EE060EE7EE0E4CF46EC5EE063ED7EE01A
:103BF000DFCF43ED5EE066EC7EE0DACF4EE05FE0E3
:103C000068E27FE0D5CF48E25FE06EE07FE0D0CFB2
:103C100061E081E0C6CF0E949F0F71CDB7E7EB1640
:103C2000BCE7FB0609F460C0E8E7EE16ECE7FE0629
:103C300009F45EC0F8018581E080F180882309F4F1
:103C40009FC0C7010E94D80CD82E682FC7010E94C0
:103C50007009B7018D2D0E94CA0C0E940D087C01CD
:103C6000882ED8011596AC90159716969C90929434
:103C70003FE093228091BE028770F1F0CA2CAA2007
:103C8000E1F08F2D807F803451F080E28E0D8830FE
:103C900098F0911004C08F2D807E803269F0809161
:103CA000690282FF09C082E00E946C118091BE020D
:103CB0008770CC24C3948111C12CBF2CB2942FE007
:103CC000B222BBE0BB1508F4C3C0EB2DF0E0E45812
:103CD000FC4C0C94542F81E00E94831143E062E07D
:103CE00081E00E943F110BCD81E00E945F11F6CF71
:103CF00082E0FBCFF3E0EF16FCE7FF0671F160F422
:103D0000E1143CE7F306D1F081E0E8168CE7F80611
:103D100009F090CF0E94D9189BE5E9169CE7F906B7
:103D200069F1ACE5EA16ACE7FA06F1F0BAE5EB1694
:103D3000BCE7FB0609F07ECF81E01DC010921103A5
:103D40000E94F415EFEFF4E32CE0E150F040204046
:103D5000E1F700C000000E94EC046FEF7FEF90E0FD
:103D600080E00E94FC2FD6CF8091690282FB8827D9
:103D700080F991E089270E9475135CCF80E0FBCF2A
:103D8000C7010E943C09D82E64CFEF2DEF70DE2EC4
:103D90008F2D807F19F0D29490EFD922AA20B9F00C
:103DA000DD2069F080E28E0D883010F0811009C0AE
:103DB00080911103D82AD09211030E94B7158E2D3D
:103DC00045C080912102D82AD0922102F6CF8E2DB3
:103DD0000E941719DD20E1F180E28E0D883010F08D
:103DE000811004C08D2D0E942B0906C0D0948091B3
:103DF0002102D822D09221020E94B71529C0FF2D9E
:103E0000FF70DF2E8F2D807F803219F0D29480EFEB
:103E1000D822882059F021E0821609F481C0AA2016
:103E200009F48DC0992009F44FC0C9CF809169026F
:103E300082FD46C0AA20F1F1DD2039F08091110306
:103E4000D82AD09211030E94B71580E00E946C1905
:103E5000AB2DA850BB0B149710F40E94CB0BCC20B9
:103E6000A9F08091BE0280FD11C0F80115828695EF
:103E7000869586950E948311C8010E94C41A80917C
:103E8000BE028695869586950E945F1120E0D80136
:103E90004C9111965C91119712966C911297139612
:103EA0007C91139714968C91149715969C910E946F
:103EB000370D35CC80E00E941719DD2049F292CFF2
:103EC000AA20A1F0911004C08D2D0E940D19C0CF21
:103ED00031E09312BDCF809120029D2D9823D916F9
:103EE00009F4B6CFD82AD0922002B2CF9110B0CF29
:103EF0008D2D0E940619909120028D2D892329F085
:103F00008D2D80958923809320028091F2019D2D33
:103F1000982309F49DCFD094D822D092F20198CF63
:103F2000AA2029F085E0891508F492CFCDCF94E03E
:103F3000991508F48DCF8D2D0E94061989CF9920EF
:103F4000D1F3A9E38A1209C0BFEFE7EEF3E0B15065
:103F5000E040F040E1F700C000008E2D0E941719EC
:103F600077CF8F2D86958695837061F0813009F02B
:103F70006FCFC7019370A11002C080E090E00E9453
:103F8000510566CFC7019370A11002C080E090E098
:103F90000E9476055DCF6A2D8E2D0E941D1058CF90
:103FA0008F2D837091F5A11053CF4E2D42954695DC
:103FB0004770440F440F8E2D8F70042E01C0880F60
:103FC0000A94EAF72E2D2071E4FE07C02FE030E0BE
:103FD00001C0220F4A95EAF720953F2D3695369578
:103FE0003370323069F050F440912202313029F0C0
:103FF000822B84230E94A6092BCF842B822BFACFFD
:10400000282B809122028227F5CF8695AA2011F0D5
:104010008F2D8170882309F41BCF4E2D4295469534
:104020004770440F440F8E2D8F70042E01C0880FEF
:104030000A94EAF72E2D2071E4FE07C02FE030E04D
:1040400001C0220F4A95EAF720953F2D3695369507
:104050003370323069F050F44091A502313029F0CC
:10406000822B84230E943A11F3CE842B822BFACF29
:10407000282B8091A5028227F5CF2F2D2F70F22EAD
:10408000AA2029F0822F0E9483118E2D1ECF8E2D03
:104090000E9406198F2D0E945F11DACE8E2D32EF0D
:1040A0008316B1F1381570F090EF8916D1F0A1EFB9
:1040B0008A1691F0AA2009F45EC0911080CE8F2D4F
:1040C0008F712AC0B3EF8B1651F1E4EF8E12F2CF4D
:1040D0008091690282FD2FC08F2D8F71AA20D9F2A5
:1040E0001BC0AA2081F0F4E0F91508F4B1CE2F2D01
:1040F0002F7181E090E001C0880F2A95EAF7909136
:10410000A5028927AFCF25E0291508F4A1CEEFCF6E
:104110008F2D8F71A110BFCF0E94831199CE80E0A7
:10412000AA2009F49FCF9F2D9F7181E001C0880FC5
:104130009A95EAF797CFAA2099F03F2D3F71F32E79
:10414000832F0E9483118091690282FF07C0A8E03B
:10415000FA9EC001112483608093BE028F2DDCCFB4
:1041600081E00E946C11B1E0B91508F071CE82E0D7
:104170000E946C116DCE992059F0893309F0EDCE73
:10418000EFEFF7EE23E0E150F0402040E1F7E3CE1F
:104190008F2D8F7180CFB7E7EB16BCE7FB0609F4D4
:1041A0009ACDE8E7EE16ECE7FE0609F0A3CD82E033
:1041B00093CDCF93DF9380911702807F09F04DC09C
:1041C00080911602882309F448C0E0916103509160
:1041D0002803C0911202D0911102609113027091D4
:1041E000140247E05E17C9F18E2F90E0E49FF001C2
:1041F0001124E75DFC4F2481222391F1489FF001B7
:10420000499FF00D1124DF01A75DBC4F11962C9141
:1042100011972C1325C02C912D1322C015962C918B
:10422000159721111DC012962D913C91261B370B1D
:10423000283C3105A8F4809117028F70806180932B
:104240001702E15DFC4F80818F708061808381E186
:1042500092E00E94C41A0E943209DF91CF91089522
:10426000FC013196E770BECFA4E1B0E0EAE3F1E2F1
:104270000C94FB2E8C0186E0F801DE011F96019064
:104280000D928A95E1F7F8018481E58091E1A92EEC
:1042900092E0B92E90911502911128C0882319F14E
:1042A000EE20F1F0C8010E94140DF82E8823C1F011
:1042B00087E0F801D50101900D928A95E1F7809190
:1042C0001502813031F480911102909112020E9406
:1042D000070D0E94D9208F2D6496ECE00C94172FC7
:1042E000C8010E94C41AFF24F394F5CFD080C18086
:1042F00082809380F0901602209113023091140274
:10430000A401421B530BFF2009F4D9C0483C5105BE
:1043100008F092C08823F9F290911202809117025E
:10432000282F207F09F056C0C91214C090911102A5
:10433000D91210C0E11048C08F70806180931702BD
:1043400081E192E00E94C41A80911702F8018683ED
:10435000F12CC1CFE11038C06C2D8D2D0E9470035F
:104360006C2D8D2D0E947003E82E8111F1CFDF8618
:10437000C88A8F8598890E94070D292F22952F7052
:10438000243058F49F70223088F0992399F0F80176
:104390009681907F79F4FE2C9ECF2A5F2F70223079
:1043A00068F0C8010E94C41AEF2CF5CF992311F0D0
:1043B000882389F3805E883070F3F3CF803F58F311
:1043C000815F833070F7E7CF80911702816080931F
:1043D0001702BECFC91207C090911102D91203C0B3
:1043E000EE2009F48DC0C8010E94140D882309F441
:1043F00077CFEE2009F474CF80911702803288F0D5
:104400002091110230911202398728879B868A8673
:10441000909115029C871D868E87CE0108960E947A
:10442000C41A87E0F801A1E1B2E001900D928A95EB
:10443000E1F70E94D92057CF90911702292F207FB2
:1044400051F481E192E00E94C41A87E0F5011192D3
:104450008A95E9F77DCF882309F43DCF8091120238
:104460008C1110C080911102D8120CC0E1100AC04A
:104470009683C8010E94C41A87E0F50111928A95BB
:10448000E9F729CFC8010E94140D882309F428CF29
:10449000EE2009F425CF80911702803210F220918E
:1044A0001102309112023A8329839C828B8290916F
:1044B00015029D831E828F83CE010196B0CF483CAA
:1044C0005105D0F6882309F40ECFFE2CEE2009F416
:1044D00007CF809112028C1120C080911102D81256
:1044E0001CC08091170280FD0FC0982F907F61F053
:1044F0008683903F31F0982F907F905F8F70892B4B
:104500008683C8010E94C41A87E0F801A1E1B2E0E5
:1045100001900D928A95E1F7DECEC8010E94140D3C
:1045200081117FCF80911702816080931702C801AB
:104530000E94C41AD0CEABE1B0E0E1EAF2E20C9402
:10454000032F4E8B5F8B688F798F8A8F9B8F192FEC
:104550009111109221021D8A86E0FE017696DE01FD
:104560001F9601900D928A95E1F70A8D002341F084
:1045700021E04F85588969897A89C8010E94370DE1
:104580000B8B1C8B87E0FE013F96DE011896019095
:104590000D928A95E1F7CE0108960E94342181118F
:1045A0000CC087E0FE013896DE01119601900D9255
:1045B0008A95E1F78C8581110BC017E0809161032A
:1045C00090912803891333C06B96E4E00C941F2F5D
:1045D0002091280330E0C901019687709927409106
:1045E00061034817190699F097E0929FD001939FB5
:1045F000B00D1124A75DBC4FFE01319601900D92C4
:104600009A95E1F7809328030E943209D6CF109241
:1046100011030E94F415109228031092610387E0A1
:10462000E1E1F2E0DF011D928A95E9F7C6CF819FB3
:10463000C0011124875D9C4F0E943421882321F200
:104640008091610390E001968770992780936103C0
:10465000B5CFA6E0B0E0EFE2F3E20C94032F0E94A6
:1046600018058C01809123029091240280179107F4
:1046700081F019821A820E941805682F49815A8197
:10468000792F80E090E00E949B22109324020093F7
:1046900023022696E4E00C941F2FA2E1B0E0E3E5AC
:1046A000F3E20C94F72E4DE4642E41E0742E5BE6A9
:1046B000E52E53E0F52E68E4C62E61E0D62E512C8F
:1046C00088248394912CD6018D916D010E942C0A2F
:1046D00000C0F70140803DE4A32E31E0B32EF50188
:1046E00010E000E04191A42FA295AF70B0E0909649
:1046F0008C919401002E01C0220F0A94EAF790E0F9
:104700004F7002C0959587954A95E2F780FD92C05B
:10471000422A0F5F1F4F0430110521F7F601319730
:1047200080810E94400AF0EAFA95F1F7D7018C9156
:10473000841519F04C9255245394BFEFEB1AFB0AE1
:10474000EDE4CE16E1E0DE0609F0BDCFEE24E39401
:10475000F12CD5018D915D010E942C0A00C0C7018A
:10476000002E01C0880F0A94EAF7782FEBE6F3E0F9
:1047700098E4C92E91E0D92E682F6095D6012D912D
:104780006D01822F82958F7090E0DC0190968C9164
:10479000AF01308190E02F7002C0959587952A95E2
:1047A000E2F780FD4AC0872F832B80833196DA01A0
:1047B0008C91381711F0552453946C147D04F1F644
:1047C000F501319780810E94400AB0EABA95F1F76D
:1047D0000F5F1F4F0830110509F0BBCF0091670232
:1047E000552071F181E08093E6010E9418059093B5
:1047F000E5018093E4018091E4019091E5010E943C
:10480000FD04059708F110E002571D4F45E050E008
:104810006BE673E0C8010E94A42F892B41F085E06C
:10482000EBE6F3E0D80101900D928A95E1F7109242
:10483000E6010AC0209542226CCF862F8323B5CF94
:104840008091E6018111D7CF0E94A80BF82EE0914C
:104850006702811100C1F0E0E257FD4F85E0A7E259
:10486000B2E001900D928A95E1F765E070E087E291
:1048700092E00E94A9058093260240918A0250E0AE
:104880006091890270E06B577D4FCE0101960E94C6
:10489000B12F898180932D0261E070E0CE010196F5
:1048A0000E94A90580932C02C0902E02D0902F0266
:1048B000E0903002F09031028091EB019091EC0198
:1048C000A091ED01B091EE01C816D906EA06FB06EB
:1048D000D1F0C092EB01D092EC01E092ED01F092A8
:1048E000EE010E94A80B81110EC00E940C05C61A91
:1048F000D70AE80AF90AC0926002D0926102E092F7
:104900006202F09263028CE0E2E3F2E0DE011196D3
:1049100001900D928A95E1F7809132028695F09090
:104920003302E0903402D090350200913B021091A6
:104930003C0290913D0210923C02112321F114FDA2
:104940009093040310FF0BC0998190FF7EC090915B
:10495000620391609093620360E00E94420F11FF36
:1049600006C020E04D2D6E2D8F2D0E94700E12FF7F
:1049700005C0002309F46CC00E94750D13FF03C02D
:1049800081E08093FE024091E7015091E80160913F
:10499000E9017091EA012FB7F89480910C0390918E
:1049A0000D03A0910E03B0910F032FBF48175907B5
:1049B0006A077B0709F444C00E940C056093E70175
:1049C0007093E8018093E9019093EA010E94360B0D
:1049D0009C0199E0EEE3F2E0DE01119601900D9268
:1049E0009A95E1F788859985009729F02817390766
:1049F00011F00E94030BFE013D9686E0DF011D923F
:104A00008A95E9F74D855E856F85788989899A89C8
:104A10000E94640B2A833B834C835D836E837F8378
:104A200066E070E0CE0102960E94A905898389E0C4
:104A3000FE013196AEE3B2E001900D928A95E1F766
:104A4000852D6296E0E10C94132F0E943B0E87CFD8
:104A50000E94C60593CF20E733E085E0D9011D927F
:104A60008A95E9F70E2F10E002571D4F80916A03D7
:104A70008A3008F045C06FE075E1C8010E94550A10
:104A8000882309F45AC06BE67AE1C8010E94550AEE
:104A9000882309F452C069E374E1C8010E94550AF1
:104AA000882309F44AC060EE73E1C8010E94550AE8
:104AB000882309F442C063EE74E1C8010E94550ADC
:104AC0008823D9F110926A0381E08093F10100916B
:104AD000660210E002571D4F45E050E060E773E0CA
:104AE000C8010E94A42F892B09F4AACF85E0E0E732
:104AF000F3E0D80101900D928A95E1F75F2CA0CFE9
:104B00008091EF019091F0010E94FD04843F91405B
:104B100008F0B1CF8091F101882309F491CF109270
:104B2000F101E0916602F0E0E257FD4F95E0DF0110
:104B30001D929A95E9F7582E83CF80916A038F3F93
:104B400031F08F5F80936A038A3008F4BDCF0E94F2
:104B500018059093F0018093EF01DCCF1F920F9224
:104B60000FB60F9211242F933F934F935F936F9340
:104B70007F938F939F93AF93BF93CF93DF93EF93E5
:104B8000FF93D091E900DF708091EC00C82FC170D5
:104B900080FDC0E81092E9008091F000877F80934B
:104BA000F00078940E9419161092E9008091F000AC
:104BB00088608093F000CD2BCF70C093E900FF9107
:104BC000EF91DF91CF91BF91AF919F918F917F91A5
:104BD0006F915F914F913F912F910F900FBE0F906A
:104BE0001F9018951F920F920FB60F9211242F93BA
:104BF0003F934F935F936F937F938F939F93AF9365
:104C0000BF93EF93FF938091E10082FF09C08091F1
:104C1000E20082FF05C08091E1008B7F8093E1007C
:104C20008091DA0080FF24C08091D80080FF20C0EE
:104C30008091DA008E7F8093DA008091D90080FF26
:104C40009DC080E189BD82E189BD09B400FEFDCF30
:104C500081E080931E0380911003811109C00E949E
:104C60008F030E9430048091E20084608093E20010
:104C70008091E10080FF17C08091E20080FF13C0A7
:104C80008091E2008E7F8093E2008091E20080615B
:104C90008093E2008091D80080628093D80019BC94
:104CA00085E080931E038091E10084FF2BC08091FA
:104CB000E20084FF27C080E189BD82E189BD89B51A
:104CC000982F917080FFFBCF8091D8008F7D8093CB
:104CD000D8008091E1008F7E8093E1008091E20016
:104CE0008F7E8093E2008091E20081608093E200F9
:104CF00080911F03882309F447C084E080931E033A
:104D000080911E038091E10083FF27C08091E20023
:104D100083FF23C08091E100877F8093E10082E0E0
:104D200080931E0310921F038091E1008E7F809379
:104D3000E1008091E2008E7F8093E2008091E200AA
:104D400080618093E20042E060E080E00E94FE0328
:104D50008091F00088608093F000FF91EF91BF9107
:104D6000AF919F918F917F916F915F914F913F9103
:104D70002F910F900FBE0F901F90189519BC109295
:104D80001E031092100374CF8091E30087FD93E01F
:104D900090931E03B5CF78941F921FB61F921124D3
:104DA0008F939F93AF93BF9380910C0390910D03CA
:104DB000A0910E03B0910F030196A11DB11D809328
:104DC0000C0390930D03A0930E03B0930F03BF91B8
:104DD000AF919F918F911F901FBE1F9018951F92AA
:104DE0001FB61F9211248F939F93AF93BF9380910F
:104DF0000B03811113C080910C0390910D03A091BE
:104E00000E03B0910F034196A11DB11D80930C03B9
:104E100090930D03A0930E03B0930F03BF91AF9136
:104E20009F918F911F901FBE1F901895CDB7DEB731
:104E3000A6970FB6F894DEBF0FBECDBF85B78068CA
:104E400085BF85B7806885BF84B7877F84BF0FB66D
:104E5000F894A8958091600088618093600010921A
:104E600060000FBE80E890E00FB6F8948093610078
:104E7000909361000FBE8AE197E09093DB018093ED
:104E8000DA010E948F030E9430048091E200846066
:104E90008093E200789480911E038823A1F0109102
:104EA000E9001F709091EC00892F817090FD80E8DF
:104EB000182B1092E9008091E80083FD0E941916DA
:104EC0001F701093E90082E084BD93E095BD9AEFD6
:104ED00097BD80936E001092600210926102109252
:104EE0006202109263020E945C0D811102C00E9456
:104EF0008B0C0E943B159091510181E09827909373
:104F00008902282F291B20936502909151018093DB
:104F10008A02909151018093640283E080935B0147
:104F200024982C9A25982D9A8FE891E00197F1F713
:104F300000C0000020918A024BE852E0FA018E2F57
:104F4000841B821708F475C0809151010E943B15A3
:104F500080914D010E94400A80914E010E94400ABA
:104F600080914F010E94400A809150010E94400AA6
:104F700008E411E06DE4E62E61E0F62EF80181917F
:104F80008F010E94400AE016F106C1F7809151019D
:104F900095E0811190E09093670285E0891B8093F2
:104FA00066020E94A80B811102C00E94962DEBE6BA
:104FB000F3E0AEE8B2E011921D9223E0E537F2078C
:104FC000D1F78FE090E00E94C22F60936B02709344
:104FD0006C0280936D0290936E020E94CC0F0E942F
:104FE0008C13811102C00E94521582E090E00E9451
:104FF000BA2F8093760284E090E00E94C82F9093AD
:105000006902809368020E944D238FE39CE9019717
:10501000F1F700C000000E944D2380918E0280FFB6
:1050200013C06FEF7FEF90E080E00E94FC2F0E94A2
:10503000EC0483B1829581701D9904C090E0892BA6
:1050400081937DCF92E0FBCF83E090E00E94BA2F66
:105050000E94A6098091A5020E940E1180916A0209
:10506000811178C00E948C13811104C00E945215D6
:105070000E94B00F88E090E00E94C22F4B015C01BB
:1050800084E290E00E94BA2F282F30E040E050E008
:1050900060E070E080E090E000E20E94612F28294B
:1050A00039294A295B292093620330936303409393
:1050B0006403509365036093660370936703809362
:1050C00068039093690380910303836080930303D3
:1050D0002E7F89F50E94B00F88E090E00E94C22FD9
:1050E0006B017C0184E290E00E94BA2F282F30E00F
:1050F00040E050E060E070E080E090E00E94612FCE
:10510000B22FA32FF42FE52F5B0197018601BC2955
:10511000A12BFE29E32BB0936203A0936303F093CA
:105120006403E093650360936603B0926703809322
:105130006803909369030E94CD050E94C605809183
:10514000620380FF04C060E086950E94420F81E008
:1051500080936A020E94A80B811102C00E94962DC2
:105160000E948F0BE0916B02F0E0EE0FFF1FE655FF
:10517000FE4F808191810E94030B82E591E0909324
:1051800008038093070348E1C42ED12C50E4752E08
:10519000FF24F394EE24E39480911E0300E112E1D6
:1051A000853009F482C00E944D2307E712E0AEE883
:1051B000B2E0F80191918D9122E0E138F20709F413
:1051C00080C09817B9F30E94A80B382E2EE8A22EA3
:1051D00022E0B22E912CF50181905F01F8014190FF
:1051E0008F01481429F14824612C55245394842DAF
:1051F0008521B1F03320A1F069A29AA20E9418057E
:105200009CA38BA3EDA291E0882D852109F490E069
:105210009EA349A15AA16BA17CA18DA10E949B22B2
:105220006394550CF8E06F12E2CFF8013197808259
:1052300093942AE09212CFCF0E94DC0B46C080915B
:105240001E03843019F10E948F1110920B030FB6C8
:10525000F894A895C09260000FBE7092600083B76A
:10526000817F846083BF83B7816083BF7894889592
:1052700083B78E7F83BF0FB6F894A89580916000A6
:10528000886180936000109260000FBE80911D03C2
:10529000882359F00E944D23EEE8F2E081918111BC
:1052A000BDC392E0E839F907C9F780911E03853044
:1052B00009F4C5CF109211030E94F4150E94CB0B84
:1052C00072CF981380CF0E9429230E94A80B80914F
:1052D0000203882309F463C080910103E091620313
:1052E000E695E81BE093FD02823009F072C1F0E020
:1052F000ED57FD4FE4910E2F10E094EFA92E9DE0A5
:10530000B92E8091FE02882361F01092FE020E9465
:10531000F90B9093FC028093FB0210920003109211
:10532000FF020E94F90BE091FB02F091FC029C014C
:105330002E1B3F0B2F3F3F4790F5209184022223E5
:10534000B1F0109284022091820230918302821B7C
:10535000930B8F3F9F4758F4205D3A483093830268
:1053600020938202809103038860809303038090DE
:10537000FF02909000030E0F1F1F1093FC0200937A
:10538000FB028BEF92E0F50109958091FF0290916D
:105390000003892B21F4892811F0F0928402809176
:1053A0008102882361F010928102809102038111B1
:1053B00006C08091620360E086950E94420F812CB6
:1053C000612C80918A02881608F40AC161100E943B
:1053D000F60B0E948F1181110E94DC0B86E0E6EA39
:1053E000F2E0DE01119601900D928A95E1F710929C
:1053F000A8021092A9021092AA021092AB021B817D
:105400000C81812F802B09F445C080919D029091E1
:105410009E020E94FD049C0190919802992309F438
:1054200023C325313105B0F19F3F19F09F5F909361
:105430009802112359F00E94EC069FEF11160CF40C
:1054400091E0899F802D11248093A802002359F0B8
:105450000E94EC069FEF10160CF491E0899F802DBE
:1054600011248093A9028091A802882399F01091B9
:10547000A902112379F00E940C07882309F420C1A6
:105480008093A802812F0E940C07882309F41BC176
:105490008093A9021D810E81812F802B09F445C0C4
:1054A00080919B0290919C020E94FD049C0190912E
:1054B0009902992309F4D3C221353105B0F19F3FF8
:1054C00019F09F5F90939902112359F00E94CA0628
:1054D0009FEF11160CF491E0899F802D1124809389
:1054E000AA02002359F00E94CA069FEF10160CF47E
:1054F00091E0899F802D11248093AB028091AA02B4
:10550000882399F01091AB02112379F00E940C07C7
:10551000882309F4DBC08093AA02812F0E940C0724
:10552000882309F4D6C08093AB02BE016F5F7F4F22
:1055300086EA92E00E94240581110CC08091A802A5
:105540009091A902892B9091AA02892B9091AB028C
:10555000892B11F00E94AE0686E0FE013196A6EA84
:10556000B2E001900D928A95E1F70E94CB0B9091E9
:105570008D02891721F080938D020E940C05809185
:105580001E03843009F008CE83E08093E900809107
:10559000E80082FF01CE8091E80090E085FF06C020
:1055A0000E94AE03882309F497C091E08091E8003F
:1055B0008B778093E800992309F4EECD8981EFEF92
:1055C000E80FE33108F0AFC0F0E0E857FC4C0C9472
:1055D000542F00ED17E085ECA82E85E0B82E91CE73
:1055E000082D10E0E3B1E295E1701D9961C080E003
:1055F0008E2BD801A557BD4FEC919E2F9370891724
:1056000009F454C0EE0FEE0FE82BEC93D801A65A24
:10561000BE4FAC9090908902980CEF70F0E0EC5483
:10562000FE4F09571D4F8081F8019081890F8083BB
:10563000B12C082E000C990B512C8A159B0584F077
:10564000E92DF0E0EB57FD4F80818F5F80830E9452
:10565000A80B582E882371F160E0892D0E94121A40
:10566000F8018081082E000C990B222733272A1974
:105670003B092817390784F0E92DF0E0EB57FD4F7F
:105680008081815080830E94A80B582E8823A9F026
:1056900061E0892D0E94121AF8018081082E000C09
:1056A000990BB5010E94402F80836528839489CE91
:1056B00082E09ECF55245394D3CF55245394ECCFFE
:1056C000F092A802DFCEF092A902E4CEF092AA02F4
:1056D00024CFF092AB0229CF00E210E0CE01019678
:1056E0005C018091E80085FD0AC08091E8008B771D
:1056F0008093E8000E94AE03882399F356CF8091EF
:10570000F100F50181935F010150110951F74DCF6F
:105710001A828CE08B831BC08A81823009F496C187
:1057200028F4813061F08FEF898311C08330C1F09C
:105730008430C9F71B821C821D821E8208C00E9411
:105740000C050E945A2F6B837C838D839E8340E2DD
:1057500050E0BE016F5F7F4F82E00E94880A1CCD3F
:105760002B81822F90E0FE013496245E8A309105D1
:1057700070F7DC01A257BD4F3C913193019628137D
:10578000F5CFE5CF8A81823049F0853061F680918E
:10579000620380FF0EC00E943B0ED9CF6B817C81DB
:1057A0008D819E810E945A2F88E290E00E94DE2F18
:1057B000CECF81608093620360E086950E94420FA5
:1057C000C6CF4C816B818A810E949B0C98278927C8
:1057D00098279E838D83BBCF2D813E81322723273F
:1057E00032274C816B818A810E94140CB0CF0E94B9
:1057F0003A0CADCF9A81923009F095CF8830D9F12B
:10580000893009F463C08B81823009F1A8F48130BA
:1058100009F09DCF8C81FFEF8F9FC00111246FEFA6
:1058200070E00E942C2F462F20E06091640380914D
:1058300063030E94700E8BCF8330C9F0843009F06F
:1058400086CF20E0409165036D818C81F2CF8C8101
:10585000882309F4A0CF8091620381608093620362
:1058600060E086950E94420F60E08C81A7CF8C811A
:10587000809366036CCF8B818230E1F078F48130C5
:1058800009F065CF809165032FEF829FC00111243D
:105890006FEF70E00E942C2F6C8359CF833099F00A
:1058A000843009F054CF809163038C83809164032A
:1058B0008D834DCF8091620380FF03C086958C83DA
:1058C00046CF80E0FCCF80916603F9CF2091620340
:1058D00030916303409164035091650360916603C6
:1058E0007091670380916803909169030E944A0E4A
:1058F0002ECF80E18A832BCFFA8287E50BCF0A81F6
:105900001B81102701271027CE0101965C018C8096
:10591000FC01E80DF11D4F01C80187559D4F8A1408
:105920009B0409F414CF0735F1E01F0750F40E94DF
:10593000BA2FF50184830F5F1F4FFFEFAF1ABF0A25
:10594000EBCFF5011482F7CF0A811B8110270127C5
:105950001027CE0101964C01AC80A00EB12EB11CD7
:10596000C80187559D4F0A151B0509F4F0CE073570
:10597000E1E01E0720F4F40164810E94DE2FFFEFB6
:105980008F1A9F0A0F5F1F4FEBCF0E94040CDFCED0
:1059900084E0B0CF0A811B81102701271027CE0198
:1059A00001965C018C80FC01E80DF11D4F01C801DE
:1059B00089968A149B0409F4CACE0038F2E01F07C6
:1059C00050F40E94BA2FF50184830F5F1F4FFFEF41
:1059D000AF1ABF0AECCFF5011482F7CF0A811B8101
:1059E000102701271027CE0101964C01AC80A00E94
:1059F000B12EB11CC8018996A016B10609F4A7CE34
:105A00000038E2E01E0720F4F40164810E94DE2FDA
:105A1000FFEF8F1A9F0A0F5F1F4FECCF09BD19BD13
:105A200009B400FEFDCF8091D8008F7D8093D8000F
:105A30008091E00082608093E0008091E00081FD31
:105A4000FCCF109211030E94F4152FCC88E290E055
:105A50000E94BA2F1B821C821D828E8378CE2B302F
:105A6000310508F02ECD61CD2B30310508F0DECCAC
:105A700011CD8EE14A9B02C08150E1F74A9BFECFD7
:105A800008955A9880E28A95F1F75A9A0895FC0190
:105A90003BE03A95F1F798E020E080E031E040E12A
:105AA0004A95F1F7880F4A9B02C08160232742E0A4
:105AB0004A95F1F7000040E14A95F1F7915079F7E6
:105AC00090E19A95F1F799B132E03A95F1F700003B
:105AD00040E14A95F1F792FB992790F992272081AE
