:100000000C9451030C946E030C946E030C94422ECA
:100010000C946E030C946E030C946E030C946E039C
:100020000C946E030C946E030C9457260C941326B8
:100030000C9454270C946E030C946E030C946E0372
:100040000C946E030C946E030C946E030C946E036C
:100050000C946E030C9430270C946E030C946E0376
:100060000C946E030C946E030C946E030C946E034C
:100070000C946E030C946E030C946E030C946E033C
:100080000C946E030C946E030C946E030C946E032C
:100090000C946E030C946E030C946E030C946E031C
:1000A0000C946E030C946E030C946E03076342363B
:1000B000B79BD8A71A39685618AEBAAB558C1D3CF9
:1000C000B7CC5763BD6DEDFD753EF6177231BF00BD
:1000D0000000803F05A84CCDB2D44EB93836A902F5
:1000E0000C50B9918688083CA6AAAA2ABE00000036
:1000F000803F05010902A10185020901A10005094E
:1001000019012908150025019508750181020501CD
:10011000093009311581257F950275088106093856
:100120001581257F950175088106050C0A38021591
:1001300081257F950175088106C0C005010980A150
:1001400001850319012AB700150126B7009501752D
:10015000108100C0050C0901A101850419012AA024
:1001600002150126A002950175108100C00660FFEE
:100170000961A1010962150026FF0095207508811B
:10018000020963150026FF00952075089102C0053D
:10019000010906A101050719E029E71500250195C8
:1001A000087501810295017508810105071900296B
:1001B000FF150026FF009506750881000508190146
:1001C0002905150025019505750191029501750315
:1001D0009101C000000000000000000000000000CD
:1001E000000000000000000000000000000000000F
:1001F000000000000000007E0F00D4FFFFFFC700DA
:1002000000007800000000000000002A2B280000F9
:1002100000000000000000000000000000002900B5
:100220000000002C1E3420212224342627252E36BF
:100230002D3738271E1F202122232425263333362D
:100240002E37381F0405060708090A0B0C0D0E0F80
:10025000101112131415161718191A1B1C1D2F3103
:1002600030232D350405060708090A0B0C0D0E0F67
:10027000101112131415161718191A1B1C1D2F31E3
:1002800030354C1E140A0500010101010101010174
:100290000102020202020202020203030303030339
:1002A0000303040404040404040505050505060607
:1002B00006060607070707070808080809090909C5
:1002C0000A0A0A0B0B0B0C0C0C0D0D0D0E0E0E0F6B
:1002D0000F0F1010111111121213131414151516FB
:1002E000161717181819191A1A1B1B1C1D1D1E1E6C
:1002F0001F202021222223242425262627282929BD
:100300002A2B2C2D2D2E2F303132323334353637E7
:1003100038393A3B3C3D3E3F4041424344454647E5
:1003200048494A4C4D4E4F50515354555658595ABE
:100330005B5D5E5F616264656668696B6C6D6F7062
:1003400072737577787A7B7D7E8082838587888AD1
:100350008C8E8F91939596989A9C9EA0A2A3A5A708
:10036000A9ABADAFB1B3B5B7BABCBEC0C2C4C6C904
:10037000CBCDCFD1D4D6D8DBDDDFE2E4E7E9EBEEBD
:10038000F0F3F5F8FAFDFF290014001A0008001533
:10039000001700A8002C00E1000400160007000967
:1003A000000A004A004E00E0001D001B0006001974
:1003B0000005004B004D002B00E200E3004600006A
:1003C00000215228004A004B004E000000000000AF
:1003D000000000000000002D00130012000C0018A7
:1003E000001C002B002800330233000F000E000D0C
:1003F000000B004D0052003100380037003600106D
:100400000011004F0050001F02E6004C002A0000BF
:1004100000225251004D004F00500000000000002B
:10042000000000000000003900390000003A003BE5
:10043000003C00010001000100000000003D003E02
:10044000003F0001000100010000000000400041E9
:100450000042000100010001000100010001000054
:100460000001000100010001000100000000000087
:10047000000000000000004D0052004A0020001F54
:10048000001E00010001004F005100500023002217
:1004900000210001000100DA00D900270026002514
:1004A0000024000100010001000100010001000022
:1004B000002352010001004C002A0000000000004F
:1004C0000000000000000029001E021F022002217F
:1004D00002220201000100E1001F020000000000F2
:1004E00000000001000100E000000000000000002A
:1004F000000000010001002B0001000100010000CC
:1005000000235201000100DB00DC000000000000BD
:10051000000000000000002D0227022602340234F1
:1005200000230201000100350230022F000000000C
:1005300000000001000100310230022F0200000023
:1005400000000001000100010001000100010000A5
:100550000001000100010001000100000000000096
:10056000000000000000002078237825782778001C
:100570000000000000000021782478267828780008
:1005800000D20000000000037E027E067E047E0092
:1005900000D200D1000000007E017E057E00000038
:1005A0000001000000D10000000000000000000079
:1005B00000000000000000D200CD00D100BD00A965
:1005C00000010000000000D000CE00CF00BE00AA55
:1005D00000D20000000000DA00D90000000000A8EE
:1005E00000D200D100000000000000000000000068
:1005F0000001000000D10000000000000000000029
:100600000000000000000009025B00030100A0FAE6
:100610000904000001030101000921110100012268
:1006200044000705810308000109040100020300DA
:100630000000092111010001222200070582032088
:100640000001070503032000010904020001030063
:100650000000092111010001227B0007058403200D
:1006600000011201000200000008EDFE030000017D
:100670000102000114036500740065005F00700052
:100680006F0069006E0074000000120359004D00F5
:10069000470057006F0072006B00730000000403F6
:1006A000090411241FBECFEFDAE0DEBFCDBF11E099
:1006B000A0E0B1E0E0E2F8E602C005900D92A83FAC
:1006C000B107D9F723E0A8EFB1E001C01D92AA3924
:1006D000B207E1F70E947B270C94D0330C94000002
:1006E000482F2091860390914D0357E0291302C0B3
:1006F00080E0089530E0529FF001539FF00D1124E7
:10070000E25BFC4F8181681306C08081481303C0FF
:1007100085818111EECF2F5F3F4F2770E7CFE8ED46
:10072000F0E080818E7F80831092E2001092DA00E8
:100730001092E100A0EEB0E08C9181608C938081FA
:100740008F77808319BCA7EDB0E08C918E7F8C935E
:1007500080818F7E80831092350308952091E4007C
:100760003091E50095E6A9012091EC00822F81707F
:1007700020FF06C08091E80080FF06C080E0089559
:100780002091E80022FD1AC080914303882389F05C
:10079000853089F08091EB0085FD0FC02091E40049
:1007A0003091E50042175307F9F29150E1F684E0E9
:1007B000089582E0089583E0089581E0089580918E
:1007C000450387FF13C08091E80082FF06C0809137
:1007D000E8008B778093E80004C080914303811187
:1007E000F2CF0895809143038823D9F38091E800E4
:1007F00080FFF8CF8091E8008E77ECCF982F909310
:10080000E900242F762F50E0891731F07091EC0029
:100810002091ED005091F00021FD07C09F5F9730BF
:1008200071F78093E90081E008953091EB003E7FFD
:100830003093EB003091ED003D7F3093ED0030912F
:10084000EB0031603093EB007093EC002093ED00EF
:100850005093F0002091EE0027FDE0CF80E0089556
:10086000B0E0A0E0E6E3F4E00C94682FC8EDD0E03F
:1008700088818F7E8883E7EDF0E0808181608083CE
:1008800084E082BF81E08093350388818E7F8883F6
:1008900002EE10E0F80110821092DA0081EEC82E0C
:1008A000D12CF601108288818F77888388818068B7
:1008B000888388818F7D888319BC109243031092AE
:1008C0004403109242031092410390EEE92EF12C62
:1008D000F70180818B7F808388818160888342E0FB
:1008E00060E080E00E94FE03F60180818E7F8083BD
:1008F000F801808181608083808188608083F70136
:1009000080818E7F8083888180618883CDB7DEB7C8
:10091000E8E00C94842FFC0180914B0390914C03F0
:1009200086179707A0F06115710529F49091E800EA
:100930009E779093E80090E06115710551F4911154
:1009400008C08091E80082FF34C080E00895BC01B7
:10095000F2CF809143038823C1F18530C1F18091AA
:10096000E80083FD30C08091E80082FDEACF8091ED
:10097000E80080FFE1CF8091F3002091F200382F52
:100980006115710519F02830310558F091E02830D3
:10099000310509F090E02091E8002E772093E800DF
:1009A000CBCF81918093F100615071092F5F3F4F50
:1009B000E7CF80914303882341F0853041F0809157
:1009C000E80083FFBECF81E0089582E0089583E0D0
:1009D000089580913803089587E797E79093010879
:1009E0008093000888E19AE00FB6F894A895809368
:1009F00060000FBE90936000FFCF9C014FB7F8944A
:100A00008091310390913203A0913303B09134036C
:100A10004FBF821B930B08952FB7F8946091310359
:100A20007091320380913303909134032FBF089566
:100A30002FB7F8948091310390913203A091330342
:100A4000B09134032FBF0895DC01FB0111969C91F6
:100A500011978181981322C012968C911297882346
:100A600019F0928189131AC013968C9113978823D9
:100A700019F09381891312C015968C9115978823CC
:100A800019F0958189130AC014969C91992321F03D
:100A900081E02481291303C080E001C081E08170DE
:100AA0000895A3E0B0E0E7E5F5E00C946E2F209107
:100AB0002E0330912F0328173907A1F090932F03AD
:100AC00080932E03E0912C03F0912D03309751F089
:100AD00024E029839B838A830680F781E02DCE0161
:100AE000019609952396E2E00C948A2FA3E0B0E0EA
:100AF000ECE7F5E00C946E2F20912A0330912B0344
:100B000028173907A1F090932B0380932A03E091D3
:100B10002C03F0912D03309751F023E029839B8320
:100B20008A830680F781E02DCE01019609952396F0
:100B3000E2E00C948A2FE0912C03F0912D03309782
:100B400039F022E0DC012C930480F581E02D099539
:100B50000895FC01680F791F8FEF91E3219182279F
:100B600028E030E087FF09C0880F8927215031092C
:100B7000C9F7E617F70791F70895880FF7CFFA013D
:100B8000811101C0FB01099508950895E6E2F3E0A3
:100B90001182828184608283089580918703982FD7
:100BA0009E7F29F4817082608093870308958C3042
:100BB000E8F381708A60F8CFAF92BF92DF92EF9234
:100BC000FF920F931F93CF93DF93082F162FE90106
:100BD000E42FF0E0E957FD4F611110C0E4915E2F62
:100BE0004E2F4983E8835A83DF91CF911F910F9154
:100BF000FF90EF90DF90BF90AF900895E62EF12C1C
:100C00004491D42EE42FF0E026E0829FC00111240D
:100C10002FEF30E0B9010E94952F802F90E0880FD0
:100C2000991F55E5569FD001579FB00D11248A1B7F
:100C30009B0B982F990F890F5901AE18BF08AE9ED4
:100C4000D001AF9EB00DBE9EB00D11245B2F189F3A
:100C500080011124012F11275901A01AB10AAE9E5B
:100C60008001AF9E100DBE9E100D11245901A81ACF
:100C7000B108AE9CC001AF9C900DBE9C900D11249C
:100C8000892F9927281B390B2E9FC0012F9F900D6C
:100C90003E9F900D1124E92F62307105A1F050F4B0
:100CA0006115710509F49DCF6130710581F0EB2F5D
:100CB000512F97CF6430710569F080F0663071056F
:100CC00009F48FCFF4CFE42F4B2F592F8ACFE42F85
:100CD000412F87CFEB2F542F492F83CF4B2F5D2DE3
:100CE000E12F7FCF299A089529980895909167015F
:100CF000882341F09F5F90936701109264011092E6
:100D0000630108959150F7CFECE5F1E0828591E021
:100D10008927828710861782089580916601811144
:100D20000CC09091E30296959695969581E020915E
:100D30005D01921380E08170089581E0FCCF809185
:100D40006501811108C080916701811104C00E9472
:100D50008D068170089581E090E0FBCF0E94180518
:100D60009C019091CC028091CD02982B21F0309380
:100D7000B3022093B2029091CE028091CF02982BC1
:100D800021F03093B1022093B0028AEC92E00E94ED
:100D90009B0508958091AF0280FD16C081FD16C0AD
:100DA00082FD16C08091AE028823A1F0883280F4C3
:100DB00028E0829FC001112468E270E00E94A92F00
:100DC000862F672B39F0089582E0089584E0089516
:100DD00088E0089581E008958091AF0280FD14C0FD
:100DE00081FD14C082FD16C08091AD02882381F080
:100DF0008E3180F420E5829FC00111246EE170E005
:100E00000E94A92F862F089584E1089588E208950D
:100E100088E0089580E50895282F35EB2303C0016D
:100E2000112497FF04C080589109892F0895805894
:100E30009F4FFBCF80E008959091880292FF10C0F1
:100E400041E0282F2471243009F040E031E0282FC0
:100E50002871283009F030E0431711F02CE0822788
:100E600093FF10C041E0282F2471243109F040E0A5
:100E700031E0282F2871283109F030E0431711F0B4
:100E80002CE082273091890230FF10C051E0282FDA
:100E90002171213009F050E041E0282F28712830DD
:100EA00009F040E0541711F029E0822731FF10C00B
:100EB00041E0282F2171213109F040E031E0282F55
:100EC0002871283109F030E0431711F029E082271A
:100ED00094FD877E089582389105B9F1B0F481338D
:100EE000910509F47DC048F48932910509F46DC07B
:100EF0008A32910509F47BC008958533910509F480
:100F00005FC08933910509F10895833E9105D9F1B8
:100F100038F4803E910529F1823E910579F10895DA
:100F2000863E9105D9F1873E910509F43EC0843E85
:100F3000910541F52091890221FF24C0809188020A
:100F400084FD19C087EE90E00895209188022370F7
:100F500009F05AC02091890223FF14C089E290E071
:100F600008952091880220FD38C03091890230FF19
:100F700009C024FF43C090E080E0089520918802DA
:100F800022FDF7CF08952091880222FD3AC03091CA
:100F9000890230FD39C024FFF5CFEDCF20918802C2
:100FA00023FFF0CF24FDE7CFCDCF2091880223FD92
:100FB0002EC03091890231FFEECF84EE90E008958B
:100FC0002091880225FFDECFC9CF2091880225FD20
:100FD00021C02091890223FFD5CF89E390E0D2CFB1
:100FE0002091880226FFCECF8AE290E008952091DA
:100FF000880226FFC7CF81E390E0089583EE90E05A
:10100000089582EE90E0089580EE90E0089586EED7
:1010100090E0089585E390E008951F93CF93DF93C8
:101020000E946B07EC01C11580E5D807F0F5C115EA
:1010300080E4D80708F09CC0C03ED10520F5CD3C27
:10104000D10508F082C0C83AD10578F4C53AD10577
:1010500008F073C0C130D10519F1209709F1C430EF
:10106000D105F0F4D0E0C0E01BC0C33CD105D0F7FF
:10107000C85AD0E0CC0FDD1FCE58DE4F0990D88182
:10108000C02DD4640DC0C11580E2D80708F0D1C0CE
:10109000C11581E0D80708F05AC0C83ED10510F745
:1010A000CE01DF91CF911F910895C03682E5D80718
:1010B00018F5C03482E5D80708F06BC0C03282E56D
:1010C000D80708F05FC0C11582E5D80708F497C0BB
:1010D0002C2F2695269580E2289F900111248C2F95
:1010E0008370C1E0D0E002C0CC0FDD1F8A95E2F72B
:1010F000C22BD32BDD68D4CFC03A82E5D80760F489
:10110000C03882E5D80708F459C0CF71D0E0DC2F91
:10111000CC27C46FD06AC4CFC03C82E5D80708F49E
:1011200062C0C03E82E5D80708F09CCFDC2FCC27F8
:10113000CC27DF71C06FD06AB3CFC55AD0E0C15998
:10114000DE4FC881D0E0D064ABCFD065A9CF8D2F62
:101150000E941C07182FCE0199270E946B07C12FF0
:10116000D0E0DC2FCC27CC27DF71C82BD92B98CF30
:10117000CE0199270E946B07CC27DF70C82BD92B93
:10118000D06A8ECFCF71D0E0DC2FCC27C16FD06A70
:1011900087CF2C2F26952695277080E2289F9001D7
:1011A00011248C2F8370C1E0D0E002C0CC0FDD1F72
:1011B0008A95E2F7C22BD32BDC6872CF2C2F2695B1
:1011C0002695277080E2289F900111248C2F837030
:1011D000C1E0D0E002C0CC0FDD1F8A95E2F7C22B40
:1011E000D32BDA685DCF8C2F8F710E941C07C82F1C
:1011F000D0E0DC2FCC27CC27DF71D06251CF8C2FF1
:101200008F710E941C0755E0D695C7955A95E1F756
:10121000CF70D0E0DC2FCC27282F30E084FF05C032
:1012200044E0220F331F4A95E1F7C22BD32BD0693C
:1012300037CF8D2F8F710E941C07182FCE01992751
:101240000E946B07C12FD0E0DC2FCC27CC27DF71A9
:10125000C82BD92BD2CF80959091360398239093A9
:10126000360308958091860390914D03981301C031
:1012700008958F5F8770FACF9A3080F5883070F5C7
:1012800048E0949F90011124820F932F911D682FA5
:10129000677023E0969587952A95E1F7FC01EE0F9C
:1012A000FF1FE80FF91FEF5EFD4F50E040E080E0C8
:1012B000219130E0062E02C0369527950A94E2F778
:1012C00021703327042E01C0220F0A94EAF7822BE3
:1012D0004F5F5F4F4330510559F7089580E00895FF
:1012E0009A3098F5883088F548E0949F9001112451
:1012F000820F932F911D282F277041E001C0440FCA
:101300002A95EAF723E0969587952A95E1F7FC015F
:10131000EE0FFF1FE80FF91FEF5EFD4F90E080E03A
:1013200070E05191DF0111979B01082E02C03695A4
:1013300027950A94E2F72170219525272423252754
:101340002C9301968330910561F7089580934002B4
:101350000895982F92959F7011F0892F94E0282F6F
:101360002695269511F09E5F822F869509F09F5F46
:10137000892F089580E00895E82FE295EF70F0E05E
:1013800031A1282F2F7081E090E001C0880F2A95AD
:10139000EAF7382B31A392A18095892382A308957F
:1013A000E82FE295EF70F0E031A1282F2F7081E057
:1013B00090E001C0880F2A95EAF7982F9095932323
:1013C00091A392A1892B82A30895B0E0A0E0EBEE57
:1013D000F9E00C94682F7C016B0180918F0301E090
:1013E00010E08A3010F40AE010E0C1E0D0E065E9D6
:1013F00073E0C701F6010995811104C021960C170D
:101400001D072CF4CDB7DEB7E8E00C94842FCC9FF9
:101410009001CD9F300D300D112490E080E045E328
:101420004A95F1F70000019682179307C1F7DFCFC5
:101430000F931F93CF93DF938B01EA0190914303A6
:10144000943061F58093E9008FEF9091E80081502E
:1014500095FD06C095ED9A95F1F700008111F5CF45
:101460008091E80085FF1AC00E94AE03811111C06F
:101470008091E80085FD06C08091E8008E7780931A
:10148000E800F2CFF80181918F018093F10021975C
:1014900079F78091E8008E778093E800DF91CF9113
:1014A0001F910F91089543E050E0BC0184E00E9439
:1014B000180A089546E050E0BC0184E00E94180A32
:1014C0000895CF93DF93EC0148E050E0BC0181E048
:1014D0000E94180A88E0FE01A9E3B3E001900D9292
:1014E0008A95E1F7DF91CF910895239A27E030E0C4
:1014F00090E02A98AC01022E02C0559547950A94B7
:10150000E2F740FF0EC02B9A4AE04A95F1F700C07F
:101510002A9A2150310968F785E18A95F1F7000090
:1015200008952B98F1CFCF93C1E08D37910550F0FE
:10153000CDE0863D26E0920728F46DE770E00E943A
:10154000952FC62F0E94740689E90E94750A8C2F78
:1015500080610E94750A0E947206CF9108952398B7
:101560002B9898E080E02A9825E02A95F1F7000072
:1015700023B123FB222720F9880F822B2A9A25E00A
:101580002A95F1F70000915071F70895CF930E94CA
:10159000740689E10E94750A0E94AF0AC82F25E0EF
:1015A0002A95F1F700000E947206C0712DE7C29FD4
:1015B000C0011124CF910895CF93DF930E94740648
:1015C00083E60E94750A0E94AF0AD82F0E94AF0AD4
:1015D000C82F0E9472068D2FD7FD80689C2FC7FDF3
:1015E0009068DF91CF910895ACE0B0E0EAEFFAE0C7
:1015F0000C946C2F4F8358878B879C87162F072F4F
:101600000E94DC0A811104C0911102C0902F812F29
:1016100089879A8786E0FE013796DE011196019050
:101620000D928A95E1F729813A814B815C816D8128
:101630007E8180E090E02C96E4E00C94882F229A42
:10164000239A219A0E9474068AEB0E94750A8AE501
:101650000E94750A0E9472062FE78FEA92E02150DD
:1016600080409040E1F700C000000E94DC0A08952D
:1016700080914302811110C08091D80080618093D5
:10168000D8008AE18A95F1F700C08091D90080FFE7
:101690000AC081E08093430281E09091430291303F
:1016A00009F080E0089582E0809343020E948F0356
:1016B00010924303F1CF0E94380B882359F0E09138
:1016C0002C03F0912D03309729F00190F081E02D4B
:1016D0000995089580E00895CF93DF93EC010E946F
:1016E000380B811106C0CE010E94930ADF91CF9181
:1016F0000895D093E202C093E102F8CF0F931F93B5
:101700000E94380B882329F00E940C051F910F912D
:1017100008950E940C050091800210918102209191
:10172000820230918302600F711F821F931FEECFE0
:101730000E947E0B08950E94380B882319F00E94A6
:10174000180508950E947E0BCB010895CF93DF9377
:10175000C9EAD2E060E0CE010E9447302196C1156F
:1017600084E0D807B9F7DF91CF9108951F93CF9305
:10177000DF93122F8430E0F46A30D0F44830C0F4A4
:1017800090E1699FE001112450E0440F551FC40F00
:10179000D51F90EA899FC00DD11D1124632FCE0162
:1017A00089960E944730612FCE018A960E94473069
:1017B000DF91CF911F910895AF92BF92CF92DF92A8
:1017C000EF92FF921F93CF93DF9387E8C82E83E0B9
:1017D000D82ED0E07601C0E014C0F50125913491F7
:1017E000412F6C2F8D2F0E94B60B82E0A80EB11CEA
:1017F0001F5F183091F780E1E80EF11CCF5FCA300F
:1018000019F0570110E0E9CFDF5F80EAC80ED11C64
:10181000D43001F7DF91CF911F91FF90EF90DF90CF
:10182000CF90BF90AF900895CF93C82F6FEF8111E5
:1018300065E285E290E00E9447306FEFC11165E0FC
:1018400086E290E00E9447306FEFC11160E387E2CB
:1018500090E00E944730CF91089580E00E94140CE0
:1018600060E088E290E00E9447300E94DC0B0E941A
:10187000A60B81E00E94140C08950F931F93CF9341
:10188000DF93843030F56A3020F5483010F520E1E0
:10189000629F8001112450E0440F551F040F151F53
:1018A00030EA839F000D111D1124C80189960E9402
:1018B0002330C82FD0E0DC2FCC27C8018A960E94A5
:1018C00023309E01282BC901DF91CF911F910F91E9
:1018D000089590E080E0F8CF462F7A3040F46830E9
:1018E00030F4843020F4672F0E943D0C089590E07E
:1018F00080E00895CF92DF92FF920F931F93CF93D2
:10190000DF936C010091C90280914002082BC3E073
:10191000D0E010E0FC2EC8010C2E02C095958795F2
:101920000A94E2F780FD0CC02197A0F7F12C8F2DCF
:10193000DF91CF911F910F91FF90DF90CF9008958D
:10194000B6018C2F0E946C0C0E940D08019761F368
:10195000EECFCF93DF93EC010E947A0CBE010E9480
:101960006C0C0E940D08DF91CF910895FC01248139
:101970002223C1F0808191810E94A90C92959F70D1
:10198000963091F058F4925F9F70923058F4803FF7
:1019900019F030F4883E30F481E008959A5FF4CF76
:1019A000843FD1F380E00895883EB0F3813FD1F7C2
:1019B000F3CFA6E0B0E0EFEDFCE00C946D2F49838F
:1019C0005A8349815A819923A1F0222391F0CA01B7
:1019D0000E947A0C182F682F89819A810E947009C1
:1019E00069817A81812F0E946C0C2696E3E00C9429
:1019F000892FCA010E943C09182FF2CF85E290E09E
:101A00000E942330853289F486E290E00E942330E0
:101A1000853059F487E290E00E94233091E08033D2
:101A200009F090E0892F8170089580E0FCCF6091EB
:101A30008703669570E041E050E08DE691E00E94FA
:101A40000030892B19F481E0809327030E949B0BBF
:101A500090932103809320038091280384608093D6
:101A600028030895609169018091870380FF20C059
:101A70008091680143E0849FC00111248C519D4FE7
:101A8000539A2BB1277F3BB138605FB7F894FC01C4
:101A9000649FE00DF11D1124BF0168177907D1F48F
:101AA0005FBF8FE594E00197F1F700C00000089553
:101AB00080916A0190916B0123E0829FF0011124D3
:101AC000EC51FD4F8917A0F61182108212828F5FB0
:101AD0003396F8CFFC014191CF01E8E03BB900001B
:101AE00000C047FF2BB9440F000000C000C000C079
:101AF0002BB900C0EA9591F7D0CF9091870390FF62
:101B00000EC090916A0120916B0133E0939FF00128
:101B10001124EC51FD4F921718F00E94320D0895D8
:101B20008183608342839F5F3396F5CFA3E0B0E06B
:101B3000ECE9FDE00C946C2F8C018091870380FF11
:101B400034C0F801648170E090E080E00E94D131FF
:101B500020E030E04FE753E40E94ED302BED3FE012
:101B600049E450E40E9439330E94A6330E94673151
:101B70002BE43AE34EE25FE30E947B3020EF3BEF41
:101B800048ED52E40E9439330E94A031462F9E0155
:101B90002F5F3F4F60918903809188030E94DC058D
:101BA0004B8169818A810E947D0DF80184818F5F5C
:101BB00084832396E4E00C94882FE7E8F3E08081A7
:101BC0008E7F80830E94C605E6E2F3E08281816019
:101BD00082830E94320D0895B0E0A0E0E2EFFDE0C4
:101BE0000C94642F49015A016B017C010E94CD05C0
:101BF0008401A4016A2D7B2D88E090E00E94593079
:101C000094014A2D5B2DB601C70100E20E94E52F29
:101C1000622F84E290E00E944730CDB7DEB7ECE05F
:101C20000C94802FA3E0B0E0E8E1FEE00C946A2F72
:101C3000F82E062F142FE22E8091870380FF3FC0DD
:101C4000909188039F1108C090918903961304C056
:101C500090918A03941729F09091280392609093B1
:101C60002803E82FE695F0E0EE51FE4F9081909327
:101C700026038E7F823039F59E012F5F3F4F412F23
:101C8000602F8F2D0E94DC054B8169818A810E9423
:101C90007D0DF09288030093890310938A03EE2050
:101CA00071F02091870360918B0370918C033F2D1D
:101CB000A80180918D0390918E030E94EC0D2396D4
:101CC000E6E00C94862F923021F710918A03E1CF41
:101CD000E7E8F3E0438128E0421B08F440E021E01C
:101CE000628181810E94120E0895E7E8F3E043814A
:101CF00028E0420F08F44FEF21E0628181810E94C9
:101D0000120E0895E7E8F3E0628128E0621B08F410
:101D100060E021E0438181810E94120E0895E7E88E
:101D2000F3E0628128E0620F08F46FEF21E0438165
:101D300081810E94120E0895E7E8F3E0818121E09D
:101D40004381628188500E94120E0895E7E8F3E013
:101D5000818121E043816281885F0E94120E089593
:101D600080918B03882319F0815080938B032091FD
:101D70008703309188034091890350918A036091D1
:101D80008B0370918C0380918D0390918E030E9440
:101D9000EC0D089580918B03833018F48F5F80934E
:101DA0008B032091870330918803409189035091E0
:101DB0008A0360918B0370918C0380918D039091C5
:101DC0008E030E94EC0D08959091870390FF39C017
:101DD0009170811137C0926090938703809128039E
:101DE000816080932803662391F0209187033091CE
:101DF00088034091890350918A0360918B0370910D
:101E00008C0380918D0390918E030E94EC0D609164
:101E10008703669570E041E050E08DE691E00E9416
:101E20000030892BB1F00E94C60581E08093230326
:101E300020E040918A0360918903809188030E9489
:101E4000120E0895863010F09A60C6CF880F982B36
:101E5000C3CF0E94170DE9CF8091870386958150EB
:101E600009F485E061E00E94E40E08958091870303
:101E700086958F5F863008F081E061E00E94E40E75
:101E800008958091870380FF08C0869582588F77D8
:101E9000833018F40E94360F089561E082E00E94BA
:101EA000E40E0895E7E8F3E083E0808311828FEF8A
:101EB000828383831482A6E2B3E012968C911297F8
:101EC000836012968C93758123E030E04FEF5FEFD3
:101ED00060E0868197810E94EC0D0895EEEBF2E0C0
:101EE00081E0808394E091838283838314824081A4
:101EF0005181628173818FE090E00E94593040E00F
:101F000050E0BA0183E190E00E9459300895E5E67F
:101F1000F1E083E0DF011D928A95E9F7E1E6F1E067
:101F200084E0DF011D928A95E9F70895CF9364EB71
:101F300072E087ED92E00E942405C82F882321F0EB
:101F400087ED92E00E949B059091D80286E0E7ED34
:101F5000F2E0DF01282F1D922A95E9F79093D8022D
:101F6000A4EBB2E001900D928A95E1F781E0C111F6
:101F700003C0911101C080E08170CF910895662364
:101F800009F472C08D3C41F40E94EC068195809367
:101F9000CD020E94AE0608958E3C19F40E94EC0614
:101FA000F6CF8F3C31F40E94EC0681958093CC02F1
:101FB000F0CF803D19F40E94EC06F8CF893D29F45A
:101FC0000E94CA068093CE02E4CF8A3D21F40E948B
:101FD000CA068195F7CF8B3D31F40E94CA068195E0
:101FE0008093CF02D6CF8C3D19F40E94CA06F8CF59
:101FF0009FE2980F983020F5282F215D330BA9011F
:1020000021E030E001C0220F4A95EAF79091CB021F
:10201000922B9093CB02815D21E030E0A90102C0B8
:10202000440F551F8A95E2F7CA012091D802662312
:1020300009F493C0822B8093D8020E94960F0895D2
:102040008D3D31F48091AF0281608093AF02A1CFCA
:102050008E3D21F48091AF028260F7CF8F3D19F55C
:102060008091AF028460F1CF9091CC028D3C59F405
:102070002091CD0227FF0DC01092CD0291110BC00F
:102080001092AD0208C08E3CB1F42091CD02121620
:102090009CF39923B1F09091CE022091CF02922B24
:1020A00011F41092AE02482F415D550B4830510596
:1020B00008F4B1CF6ECF8F3C39F497FFEACF10927E
:1020C000CC029091CD02DACF803D19F41916BCF301
:1020D000E0CF2091CE02893D29F41216D4F6109259
:1020E000CE02D7CF8A3D19F427FFD3CFF8CF209166
:1020F000CF028B3D29F427FFCCCF1092CF02C9CF5E
:102100008C3D19F41216CCF3C4CF2FE2280F2830DF
:1021100088F4282F215D330BA90121E030E001C0B4
:10212000220F4A95EAF720953091CB022323209382
:10213000CB02AFCF2091AF022E7F8D3D59F0209181
:10214000AF022D7F8E3D31F08F3D09F0A2CF20915F
:10215000AF022B7F2093AF029CCF809582236BCF61
:10216000CF93DF93D82F20915D0181E090E002C0F2
:10217000880F991F2A95E2F780959095CD2FC82357
:102180008C2F0E94A90990915C01833051F499230E
:1021900079F00E948D06811101C0DC2F10925C0144
:1021A00005C0911105C081E080935C010E94870FFA
:1021B0008D2FDF91CF9108950E94B0108093C902B6
:1021C00008959091C90221E030E0F90101C0EE0FBD
:1021D0008A95EAF7D90102C0AA0FBB1F6A95E2F7F8
:1021E000EA2B01C0220F4A95EAF7892F8E23E813C4
:1021F00005C0292B822F0E94DC10089520952923E9
:10220000F9CF21E030E001C0220F8A95EAF720954E
:102210008091C90282230E94DC1008959091E3020C
:10222000809589238093E302282F277069F489170A
:1022300059F09091890292FF07C086958695869500
:102240000E9401111092E302089521E030E001C0E4
:10225000220F8A95EAF78091C902822B0E94DC1036
:102260000895A6E2B0E0E7E3F1E10C945F2F0E944D
:10227000380B811105C080E0A696E1E10C947B2F1C
:102280004091DD025091DE026091DF027091E00228
:102290002FB7F8948091310390913203A0913303CA
:1022A000B09134032FBF481759076A077B0719F30A
:1022B0000E940C056093DD027093DE028093DF02C2
:1022C0009093E0020E94380B8111C6C14091D70261
:1022D0005091D8026091D9027091DA028091DB02AC
:1022E0009091DC020E94F40A2093D7023093D80226
:1022F0004093D9025093DA026093DB027093DC02C0
:1023000086E0E7EDF2E0DE01179601900D928A95E6
:10231000E1F7F090DA021091D9021195F9861A8747
:1023200086E0FE013796DE011D9601900D928A959A
:10233000E1F786E0FE013D96DE01119601900D92D7
:102340008A95E1F786E0FE013196A7EDB2E00190B3
:102350000D928A95E1F786E0E7EDF2E0DE0159960D
:1023600001900D928A95E1F70091DB023090DC023A
:10237000E091C002F0E0EE0FFF1FE053FE4F6081DE
:10238000718190E080E00E94CF3125E33AEF4EE882
:102390005CE30E9439332B013C016F2DFF0C770B5E
:1023A000880B990B0E94D1314B015C01C301B20132
:1023B0000E94E8306B017C01612F110F770B880BB5
:1023C000990B0E94D1316F8F78A389A39AA3C3017F
:1023D000B20190580E94A6332B013C01A70196013F
:1023E000C501B4010E9439336BA37CA38DA39EA3C6
:1023F000A30192016F8D78A189A19AA10E9439331E
:102400009B01AC016BA17CA18DA19EA10E947B30A0
:102410000E949931162FA3019201C501B4010E94B7
:1024200039334B015C012F8D38A149A15AA1C70155
:10243000B6010E9439339B01AC01C501B4010E9471
:102440007C300E949931F62E8091C202882309F4D3
:102450008AC0212F012E000C330B37FF03C03195AA
:10246000219531098F2D0F2C000C990B97FF03C07C
:10247000919581959109821793070CF4F7C010E0AC
:102480008091C1026091BC027091BD021802600D82
:10249000711D11247093BD026093BC022091BA0299
:1024A0003091BB024F2D8402201931091124309341
:1024B000BB022093BA02E091BF02F0E0EE0FFF1FD3
:1024C000EC53FE4FA081FB010A2E02C0F595E79563
:1024D0000A94E2F78E2FA9010A2E02C0559547955E
:1024E0000A94E2F7142FEE23E9F00E2E000CFF0BF6
:1024F000E30DF11D37FCFA95E038F1050CF4B8C096
:102500008FE78319380E082E000C990B0A2E02C093
:10251000880F991F0A94E2F7681B790B7093BD022C
:102520006093BC02F12C1123F1F0842F440F990B1E
:10253000800F911D07FD9A95803891050CF49EC07F
:102540001FE7101B010F812F110F990B02C0880F7D
:10255000991FAA95E2F7281B390B3093BB022093F1
:10256000BA02F12C10E01B8FFC8E0D8F3E8E86E0A0
:10257000FE017996DE01179601900D928A95E1F79A
:1025800086E0FE013796DE01119601900D928A9544
:10259000E1F786E0FE013196DE01539601900D923F
:1025A0008A95E1F786E0FE017396DE0117960190A9
:1025B0000D928A95E1F786E0FE013796A7EDB2E02D
:1025C00001900D928A95E1F786E0E7EDF2E0DE01F9
:1025D000179601900D928A95E1F780915C0188230E
:1025E00009F45CC080916101909162010E94FD0438
:1025F000209160012817190608F050C080916301EE
:10260000909164010E94FD04893C910508F446C044
:102610001F29012B302A0885302A81E009F480E047
:10262000809365010E949F061091C902882309F4D6
:102630004EC00E9418059093620180936101109230
:1026400064011092630180915D0111111DC0882306
:1026500029F10E94251122C086E0E1EDF2E0A7ED0C
:10266000B2E001900D928A95E1F74ACEF12C08CFA5
:10267000E138FF4F0CF046CF81E843CF81389F4FC0
:102680000CF060CF11E85DCF212F30E0082E02C0A2
:10269000359527950A94E2F720FFDBCF86E0EAEC38
:1026A000F2E0DE01179601900D928A95E1F7809194
:1026B000D8029885892B8093D8020E94960F8111A9
:1026C0002CC08091D00281701092D002D5CD809123
:1026D0005D01111118C08111E1CF809161019091CC
:1026E00062010E94FD0420915E0130915F01281774
:1026F0003907A0F680915D010E94011110926201DC
:1027000010926101CBCF212F30E002C03595279583
:102710008A95E2F720FFC2CFE0CF81E090E0D3CFEF
:102720009091890292FB222720F9281779F080FBEB
:1027300092F990938902609188027091890284E0F5
:1027400090E00E94653082E00E940E11089590E0B2
:1027500080E00E943130863E9E4F19F40E94FE0CAC
:10276000089580E00895B0E0A0E0E9EBF3E10C9477
:10277000692F7901C82F880FDD0B41155105A9F08C
:10278000FE0193E0EE0FFF1F9A95E1F7E050FF4F37
:10279000818192818C5B9D4F208130E042175307ED
:1027A00008F49A01A9010E941A30CE010E94E82E75
:1027B000D82E8823D1F001151105B9F083E0CC0F94
:1027C000DD1F8A95E1F7FE01E050FF4F438150E0A5
:1027D0000417150708F4A801C050DF4F6C817D81F4
:1027E0006C5B7D4FC7010E941A308D2DCDB7DEB7CF
:1027F000E7E00C94852FACE0B0E0E1E0F4E10C946C
:102800006C2F88E0E7E8F3E0DE01119601900D926D
:102810008A95E1F78091260390912703A0912803E0
:10282000B091290389879A87AB87BC872B85409114
:1028300076025091770260917802709179023FB7E9
:10284000F8948091310390913203A0913303B091B9
:1028500034033FBF841B950BA60BB70B8436910541
:10286000A105B10510F42223C1F010E000E030E032
:1028700020E04CE050E0BE016F5F7F4F85E00E949A
:10288000B313882369F00E940C056093760270935D
:10289000770280937802909379021092280381E066
:1028A0002C96E4E00C94882FA4E0B0E0EAE5F4E193
:1028B0000C946C2F409172025091730260917402DB
:1028C000709175022FB7F894809131039091320383
:1028D000A0913303B09134032FBF841B950BA60B3B
:1028E000B70B11E084369105A105B10518F10E94DE
:1028F0007E0B6E5F7F4F8F4F9F4F69837A838B83F1
:102900009C8310E000E030E020E044E050E0BE01B5
:102910006F5F7F4F84E00E94B313182F882351F01C
:102920000E940C056093720270937302809374028C
:1029300090937502812F2496E4E00C94882FA1E0F7
:10294000B0E0E5EAF4E10C94632F762E4A015901D8
:10295000680101E010E09E012F5F3F4F50E040E032
:1029600070E060E00E94B313182F882309F440C080
:10297000F40140815181628173812FB7F894809175
:10298000310390913203A0913303B09134032FBFF0
:10299000841B950BA60BB70B84369105A105B105D9
:1029A00038F4B701C6010E94A9059981891701F180
:1029B0008701950150E040E070E060E0872D0E94C3
:1029C000B313B82EB701C6010E94A90511E0998181
:1029D000981310E01B2139F00E940C05F40160836C
:1029E000718382839383812F2196EDE00C947F2F56
:1029F000A701B601C5010E941A30F5CFACE0B0E0E6
:102A0000E4E0F5E10C946A2F0E94380B882309F466
:102A100049C086E0E82EF12C0DE512E09E01295F09
:102A20003F4F4CE752E067E086E00E949F14882306
:102A300091F096E0FE013796DE01119601900D921D
:102A40009A95E1F796E0FE013196A1EDB2E0019092
:102A50000D929A95E1F7E090E102F090E202E11424
:102A6000F104E1F020917A0230917B022E153F05AE
:102A7000A9F0F0926402E092630210E000E030E01E
:102A800020E042E050E063E672E088E00E94B31389
:102A9000882321F0F0927B02E0927A022C96E6E005
:102AA0000C94862F81E0FACFA5E0B0E0EAE5F5E1ED
:102AB0000C94682F6B0185E0E82EF12C05E412E000
:102AC0009E012F5F3F4F4AE652E061E080E00E94A6
:102AD0009F14882349F095E0FE013196A5E6B2E007
:102AE00001900D929A95E1F795E0E5E6F2E0D601C6
:102AF00001900D929A95E1F72596E8E00C94842FC9
:102B00000E94380B8093510180915101882359F024
:102B1000109268018AE0809369010E94380B81114C
:102B20000E94FC2D08958AE080936801F4CFA8E00C
:102B3000B0E0EDE9F5E10C946E2F66EE7EEF90E0EB
:102B400080E00E94653060E082E090E00E944730C3
:102B500060E083E090E00E9447301092400260E025
:102B600074E184E090E00E94653060E086E090E0EF
:102B70000E9447306FEF87E090E00E94473040E0CE
:102B800050E0BA0188E090E00E94593060E084E2B1
:102B900090E00E94473060E087E190E00E9447307B
:102BA00060E08CE090E00E94473060E08DE090E0D3
:102BB0000E94473019821A821B821C821D821E824B
:102BC0001F82188648E050E068E170E0CE0101966F
:102BD0000E94373040E050E0BA0180E290E00E946D
:102BE000593080E00E94140C0E942D0C0E946E0F40
:102BF0002896E2E00C948A2F8091360390913F0250
:102C0000892B8093FA0190913E02992391F0892BB0
:102C10008093FA0120E08CEF91E0FC013191CF012B
:102C200031112F5FF2E082309F07B9F72111109226
:102C30003E0248E050E066E372E08AEF91E00E94D5
:102C40000D30892BA9F088E0EAEFF1E0A6E3B2E0CD
:102C500001900D928A95E1F7E0912C03F0912D03FC
:102C6000309731F00280F381E02D8AEF91E00995F1
:102C70000895CF93C6E0ECEFF1E0DF018C2F1D92B9
:102C80008A95E9F790E080E00E94760590E080E088
:102C90000E94510510923F020E94FC15EAECF2E0FE
:102CA000DF011D92CA95E9F71092AD021092AE02B3
:102CB0001092AF020E94AE06CF910895AAE2B0E052
:102CC000E4E6F6E10C946D2F85E493E02091F100A9
:102CD000DC012D93CD01B3E08D349B07B9F78091D2
:102CE0004603833009F472C0B8F4813009F449C056
:102CF000823009F4B5C08091E80083FF8DC28091D5
:102D00004503909146039A3008F086C2E92FF0E01F
:102D1000EE52FC4C0C94BD2F8A3009F490C08B30DD
:102D200009F471C0893039F780914503813219F770
:102D30008091490390914A03009711F00297D9F6C8
:102D40008091E800877F8093E8008091E80082FF0F
:102D500038C09091F3008091F200029731F4809195
:102D6000F100813011F0863021F48091F1008093E0
:102D700038038091E8008B778093E8000E94DF039E
:102D8000BACF80914503813A09F0B5CF8091E80030
:102D9000877F8093E8008091490390914A03892BB3
:102DA00061F468E089E393E070E00E948B04809115
:102DB000E8008B778093E8009ECF60E090E080E0B1
:102DC000F3CF809143038111C0CF95CF809145030C
:102DD000813A09F090CF8091490390914A03892B61
:102DE00009F089CF8091E800877F8093E800809187
:102DF000E80080FFFCCF80916E018093F10080910C
:102E0000E8008E77B9CF80914503813209F073CF06
:102E10008091490390914A03892B09F06CCF8091EE
:102E2000E800877F8093E8000E94DF0380914703DA
:102E300080936E01109236030E9439165CCF809108
:102E40004503813209F057CF8091E800877F809356
:102E5000E8000E94DF0380914803809337034BCF43
:102E600080914503813A09F046CF8091E800877F41
:102E70008093E8008091E80080FFFCCF80913703C9
:102E8000BCCF803899F0823809F0C6C180914903DF
:102E90008F70873008F0C0C18093E9008091EB000B
:102EA00085FB882780F91092E90006C080914103D4
:102EB00090914203911182609091E800977F9093E6
:102EC000E8008093F1001092F1008091E8008E7785
:102ED0009FC1882309F48DC1823009F09DC1809182
:102EE0004703811190C1809149038F702FEF280F04
:102EF000263008F091C18093E9002091EB0020FF7B
:102F000082C1933031F48091EB0080628093EB00BA
:102F10007AC19091EB0090619093EB0021E030E05A
:102F200001C0220F8A95EAF72093EA001092EA0086
:102F30008091EB008860EACF81116EC11091470348
:102F40001F778091E3008078812B8093E30080914C
:102F5000E800877F8093E8000E94DF038091E8000B
:102F600080FFFCCF8091E30080688093E30082E0E3
:102F7000111183E0809343034FC18058823008F0E1
:102F80004BC120914703309148032C3DE3E03E07BD
:102F9000A1F583E08A838AE289834FB7F894DE0142
:102FA000139620E03EE051E2E32FF0E0509357000B
:102FB000E49120FF03C0E295EF703F5FEF708E2F2A
:102FC00090E0EA30C0F0C7968D939D932F5F243137
:102FD00059F74FBF8091E800877F8093E8006AE24D
:102FE00070E0CE0101960E948B048091E8008B77FF
:102FF0008093E80011C1C096E7CF8091490390917A
:103000004A03432F55274330510509F44AC078F548
:103010004130510509F47AC08BE590E0E7E0F6E035
:103020004230510509F0F8C02091E800277F209335
:10303000E80020914B0330914C038217930708F46A
:103040009C0140E02115310509F065C0411163C0C4
:103050008091E80082FDC9CF80914303882329F243
:10306000853019F28091E80083FFF2CFBECF413264
:10307000510509F43CC04232510509F0CDC08330FE
:10308000910508F0C9C0FC01EE0FFF1FE551FE4F8E
:103090000190F081E02D88519E4FDC018C9190E0F1
:1030A0001AC0332721303105D1F02115310561F0E7
:1030B0002230310509F0B0C0E4E7F6E0E4918E2F4C
:1030C00090E0E4E7F6E007C0EEE9F6E0E4918E2F49
:1030D00090E0EEE9F6E0009709F49EC0A5CFEAE89B
:1030E000F6E0E4918E2F90E0EAE8F6E0F4CF83304A
:1030F000910508F091C0880F991FFC01EF50FE4F19
:103100000190F081E02D89E090E08ECF82E190E0A7
:10311000E2E6F6E089CF80914303882309F465CF86
:10312000853009F462CF8091E80083FD5ECF809105
:10313000E80082FD8DCF8091E80080FF83CF9091E1
:10314000F3008091F2002115310519F088309105C6
:1031500050F041E0089709F040E08091E8008E7758
:103160008093E8006FCF44914093F1003196215055
:1031700031090196E8CF803809F04EC08091E8000F
:10318000877F8093E800809144038093F1009DCE77
:10319000811142C0109147031230F0F58091E80090
:1031A000877F8093E800109344030E94DF0311237C
:1031B00011F084E005C08091E30087FDFACF81E043
:1031C0008093430342E061EC81E00E94FE0342E20F
:1031D00061EC84E00E94FE0342E261EC82E00E9426
:1031E000FE0342E260EC83E00E94FE038091430311
:1031F00013C080914703813079F481E0933009F066
:1032000080E0809342031092E9008091E800877F7C
:103210008093E8000E94DF038091E80083FF0AC0EA
:103220008091E800877F8093E8008091EB008062C6
:103230008093EB00AA96E3E00C94892F109236035A
:103240000E9439162FEF84E39CE02150804090408B
:10325000E1F700C0000088E19AE00FB6F894A89565
:10326000809360000FBE90936000FFCF882341F0F1
:10327000809590913F02892380933F020E94FC1524
:103280000895882339F090913F02982B90933F0244
:103290000E94FC150895882321F00E942B090E94AA
:1032A000FC150895882339F090913603982B90935C
:1032B00036030E94FC1508958823D1F19CEF980FE6
:1032C000913A78F4ECEFF1E09191891303C0DF01BA
:1032D00011971C9292E0E230F907B1F70E94FC15B9
:1032E000089590E2980F983050F4877091E001C0F3
:1032F000990F8A95EAF7892F0E942B09EFCF9BE55A
:10330000980F933028F490E080E00E9476050895AD
:1033100098E5980F9B3128F490E080E00E945105D9
:10332000089593E3980F933118F460E00E94BF0F63
:103330000895CF93DF93EC010E945C19CE010E94A7
:10334000BA099E01205E31092830310510F0CD2BDD
:1033500029F40E944B19DF91CF9108950E943619EC
:10336000FACF0F931F93CF93C82F882349F18CEF87
:103370008C0F813AB8F50CEF11E082E092E0F80191
:103380002191C21709F122E0E230F207C9F7EFEF0D
:1033900080E0D8019D918D01C91781F0EF3F19F4AC
:1033A000911101C0E82F8F5F863099F7EF3F31F020
:1033B0000E2E000CFF0BE650FE4FC2830E94FC1540
:1033C000CF911F910F910895ECEFF1E02191C2137D
:1033D00003C0DF0111971C928E179F07B9F70E9457
:1033E000FC15D5CF80E28C0F883068F4C77021E0DF
:1033F00030E001C0220FCA95EAF780913603822B94
:1034000080933603DBCFEBE5EC0FE33040F4F0E0E4
:10341000E159FE4F808190E00E947605D1CFE8E52A
:10342000EC0FEB3150F4F0E0EE0FFF1FEE58FE4FC3
:10343000808191810E945105C3CF83E38C0F83313A
:1034400008F0BECF61E08C2F0E94BF0FB9CF1F9351
:10345000CF93DF93182FEB010E94B119209739F415
:10346000812F0E945C19DF91CF911F9108958FE900
:103470009FE00197F1F700C000002197EFCFCF93B5
:10348000DF93EC010E94BA099E01205E31092830C9
:10349000310510F0209741F40E9452198C2F0E94A0
:1034A000B119DF91CF9108950E944119F7CF0F9381
:1034B0001F93CF93DF9381112DC0C0E0611101C034
:1034C000C1E08C2F94E00E947A0C6C2F74E00E9473
:1034D0006C0CEC01DD2710E000E0C933D10511F4DC
:1034E00000E510E0CE010E943F1A0115110549F4D4
:1034F000CE010E94991980E0DF91CF911F910F9129
:1035000008958FE99FE00197F1F700C00000015096
:103510001109EBCF813079F7C0E0611101C0C1E042
:103520008C2F99E00E947A0C6C2F79E00E946C0C31
:10353000EC01DD2710E000E0C933D10511F400E50E
:1035400010E0CE010E943F1A0115110589F28FE9A2
:103550009FE00197F1F700C0000001501109F4CF7E
:10356000A1E0B0E0E6EBFAE10C94672FEE24E394DF
:10357000F12C0BE412E09E012F5F3F4F4EE652E02C
:1035800063E082E00E949F14C82E882339F100E096
:1035900080E01DC0D0908502D00E2D2D30E0A90115
:1035A00046565D4F7A01E1E0F0E0EC0FFD1FE00FC1
:1035B000F11D1081FA019081191BB12E1B149CF092
:1035C000912F17FD90E0191B111118C00F5F9091FA
:1035D00084020917F8F281110E94980B8C2D219614
:1035E000E9E00C94832FBA94F70180818F5F808388
:1035F00060E08D2D0E94571A8C2DE0CF1F5FF701E0
:1036000080818150808361E08D2D0E94571A8C2D1E
:10361000DBCFA8E0B0E0EFE0FBE10C94602F8C0181
:10362000DC0114968C911497882309F4BDC021E025
:103630004C9111965C91119712966C91129713967A
:103640007C91139715969C910E94D90C7C01F801EE
:10365000D580DD2009F44AC197578038910508F0DC
:1036600045C1FFE0FE1508F48FC08FEF93E00E9484
:103670002330811189C0F9EAAF2EF2E0BF2EE110AC
:103680004DC0FE01339686E0DF011D928A95E9F771
:10369000EAE04E2E7501BFEFEB1AFB0AC5010E944E
:1036A000233089831A82882309F46EC0813009F09F
:1036B0007FC06501E2E0CE0ED11CC7010E9423301D
:1036C0008A83882309F460C09FEF980F9330A0F598
:1036D000F3E0AF0EB11CC6010E9423308B83882318
:1036E00009F452C01C82DE0111967D01F701208190
:1036F000222381F2213009F09BC091818281913097
:1037000009F058C0F2E0EF0EF11C70E060E0893380
:1037100011F460E570E00E94271A53C0A11424E060
:10372000B20691F1C5010E942330811101C0EA94D3
:103730003FEFA31AB30AA3CF56018430A1F672E07B
:10374000E72EF12C56012FEFA21AB20AC6010E94F1
:103750002330E1E0F0E0EC0FFD1FEE0DFF1D808354
:10376000882391F08C3741F4E2E0F0E0EC0FFD1F8C
:10377000EE0DFF1D1082B7CF3FEFE31AF30A65018C
:1037800087E0E816F104F1F68091E302877061F0BA
:10379000D80115968C91882339F08091890282FF97
:1037A00003C082E00E940E112896E0E10C947C2F69
:1037B000570199CF923049F422E0E20EF11C0E94A9
:1037C000B119FFEFEF1AFF0A91CF933031F432E0D5
:1037D000E30EF11C0E945C19F4CF943021F08FEFBE
:1037E000E81AF80AEECF92E0E90EF11C30E020E092
:1037F000B7016F5F7F4FD70111964C918053990BA2
:103800008A30910550F021503109D8F2EFE9FFE0FC
:103810003197F1F700C00000F6CF429EF001439EC1
:10382000F00D11249C012E0F3F1F842F7B01E0CF50
:10383000E22FF0E0ED5FFD4F5490822F8695869544
:10384000869590E0FC01ED50FE4F64902770712C3E
:10385000022E02C0759467940A94E2F731E0632265
:103860007724FC01ED51FE4F8490912C022E02C072
:10387000959487940A94E2F7A1E08A229924FC01A6
:10388000ED52FE4FC490D12C02C0D594C7942A9516
:10389000E2F7B1E0CB22DD246114710419F081EE6E
:1038A0000E94B1198114910419F086EE0E94B11999
:1038B000E9E370E060E05E1202C060E570E0852D33
:1038C0000E94271A8114910419F086EE0E945C1957
:1038D0006114710419F081EE0E945C19C114D104C5
:1038E00009F46FCF70E060E08CE215CF80915C014D
:1038F000882309F46BC020E2E21622E5F20608F004
:103900004EC0E11432E5F30608F0E4C0E11480E4AF
:10391000F806B8F5E11490E2F90608F007C1A0EE48
:10392000EA16F10450F0B8EEEB16F10408F449C0C1
:10393000E114E1E0FE0608F044C0D80114968C9131
:10394000882309F43EC0C7018D5C9109439708F4B0
:10395000D8C00E949F06811134C0DD2059F08091AB
:103960005D012091C9022111E7C0882309F4EDC04F
:103970000E94870F0E941805909364018093630151
:1039800020C0E114F0E5FF0608F0BFC0D80116968C
:103990008C91807F09F0CAC08F2D9927BCC020E888
:1039A000E21622E5F20608F06EC030E6E31632E5D4
:1039B000F30608F08FC080E4E81682E5F80608F404
:1039C00097C08091670187FD10926701F80185819A
:1039D000E114FEE7FF0609F0BBC0882309F18091DE
:1039E000BE0290E0019665E070E00E94952F809302
:1039F000BE024091BE025091BF026091C002709120
:103A0000C1028FE090E00E945930E091BE02F0E0E8
:103A1000EE0FFF1FE655FE4F808191810E946C0BD7
:103A2000F8018581F3E0EF16FEE7FF0609F0D8C044
:103A30008823B1F08091C00290E0089669E070E0C0
:103A40000E94952F8093C0024091BE025091BF0208
:103A50006091C0027091C1028FE090E00E945930E5
:103A6000D80115968C918111F7C38091360382722B
:103A7000F701E052F847E531F10508F030C1E452B2
:103A8000FC4C0C94BD2F90ECE91692E5F90608F475
:103A900098CFA0EEEA16A2E5FA0608F04ECF2091E4
:103AA0005D01C7018F7199272817190609F089CF81
:103AB0008D2D0E947606F8018681807F803509F081
:103AC00080CF8581882361F1809167018150809347
:103AD000670177CF20915D01C7018F719927281762
:103AE000190609F06ECFD1106CCF0E94840669CF01
:103AF00020915D01C7018F7199272817190609F0D8
:103B000060CF8D2D0E9476065CCFC70165E096954B
:103B100087956A95E1F78F70992720915D01EDCF28
:103B20000E948406809167018F5FD1CFF801868162
:103B3000807F09F446CF01CF30E0082E02C03595D2
:103B400027950A94E2F720FF13CF0E94011110CFAE
:103B500021E0E2162EE7F20659F132E0E3163EE7E5
:103B6000F30609F05DCF8823B1F08091C00290E0A8
:103B7000019669E070E00E94952F8093C002409109
:103B8000BE025091BF026091C0027091C1028FE0ED
:103B900090E00E945930F8018581F5E0EF16FEE7CC
:103BA000FF0679F1B4E0EB16BEE7FB0669F158CFEA
:103BB0008823B1F08091BF0290E0019666E070E04A
:103BC0000E94952F8093BF024091BE025091BF0288
:103BD0006091C0027091C1028FE090E00E94593064
:103BE000D80115968C91B6E0EB16BEE7FB0699F668
:103BF000882309F435CF8091C10281958093C10259
:103C000023CF882309F42CCF8091C20291E0892729
:103C10008093C20225CF8091870380FF1EC0282F8A
:103C20002E7F209387033091880340918903509120
:103C30008A0360918B0370918C0380918D03909126
:103C40008E030E94EC0D0E94C605809128038160BE
:103C5000809328030E94320D97CD81608093870363
:103C600061E086950E94E40E8FCD4CE25FE066E352
:103C70007FE00E94BF0588CD46E35FE06CE27FE015
:103C8000F8CF4CE95EE066EA7EE0F3CF46EA5EE01C
:103C90006CE97EE0EECF42E85EE06FE87EE0E9CFDF
:103CA0004FE85EE062E87EE0E4CF48E65EE065E78C
:103CB0007EE0DFCF45E75EE068E67EE0DACF40EB0E
:103CC0005EE06AEC7EE0D5CF4AEC5EE060EB7EE041
:103CD000D0CF61E081E0C6CF0E94410F55CDB7E75C
:103CE000EB16BCE7FB0609F460C0E8E7EE16ECE76C
:103CF000FE0609F45EC0F8018581E080F18088232A
:103D000009F49FC0C7010E947A0CD82E682FC70102
:103D10000E947009B7018D2D0E946C0C0E940D0845
:103D20007C01882ED8011596AC90159716969C901C
:103D300092943FE093228091E3028770F1F0CA2CC5
:103D4000AA20E1F08F2D807F803451F080E28E0D2B
:103D5000883098F0911004C08F2D807E803269F0F9
:103D60008091890282FF09C082E00E940E11809139
:103D7000E3028770CC24C3948111C12CBF2CB29470
:103D80002FE0B222BBE0BB1508F4C3C0EB2DF0E07E
:103D9000EF50FC4C0C94BD2F81E00E94251143E0B4
:103DA00062E081E00E94E110EFCC81E00E9401110D
:103DB000F6CF82E0FBCFF3E0EF16FCE7FF0671F1F0
:103DC00060F4E1143CE7F306D1F081E0E8168CE7FB
:103DD000F80609F090CF0E941E199BE5E9169CE7B2
:103DE000F90669F1ACE5EA16ACE7FA06F1F0BAE5D6
:103DF000EB16BCE7FB0609F07ECF81E01DC01092F8
:103E000036030E943916EFEFF4E32CE0E150F04066
:103E10002040E1F700C000000E94EC046FEF7FEF4C
:103E200090E080E00E946530D6CF8091890282FBCD
:103E3000882780F991E089270E9490135CCF80E069
:103E4000FBCFC7010E943C09D82E64CFEF2DEF7045
:103E5000DE2E8F2D807F19F0D29490EFD922AA20E8
:103E6000B9F0DD2069F080E28E0D883010F081100D
:103E700009C080913603D82AD09236030E94FC15DF
:103E80008E2D45C080913F02D82AD0923F02F6CFB6
:103E90008E2D0E945C19DD20E1F180E28E0D8830CC
:103EA00010F0811004C08D2D0E942B0906C0D09403
:103EB00080913F02D822D0923F020E94FC1529C077
:103EC000FF2DFF70DF2E8F2D807F803219F0D2946E
:103ED00080EFD822882059F021E0821609F481C0B1
:103EE000AA2009F48DC0992009F44FC0C9CF809150
:103EF000890282FD46C0AA20F1F1DD2039F08091CF
:103F00003603D82AD09236030E94FC1580E00E9426
:103F1000B119AB2DA850BB0B149710F40E945B0B8A
:103F2000CC20A9F08091E30280FD11C0F801158238
:103F30008695869586950E942511C8010E94091BC9
:103F40008091E3028695869586950E94011120E076
:103F5000D8014C9111965C91119712966C91129721
:103F600013967C91139714968C91149715969C91A7
:103F70000E94D90C19CC80E00E945C19DD2049F226
:103F800092CFAA20A1F0911004C08D2D0E94521949
:103F9000C0CF31E09312BDCF80913E029D2D98237A
:103FA000D91609F4B6CFD82AD0923E02B2CF9110DA
:103FB000B0CF8D2D0E944B1990913E028D2D8923FB
:103FC00029F08D2D8095892380933E0280911002E7
:103FD0009D2D982309F49DCFD094D822D092100221
:103FE00098CFAA2029F085E0891508F492CFCDCF8B
:103FF00094E0991508F48DCF8D2D0E944B1989CF2F
:104000009920D1F3A9E38A1209C0BFEFE7EEF3E0EC
:10401000B150E040F040E1F700C000008E2D0E945A
:104020005C1977CF8F2D86958695837061F08130EE
:1040300009F06FCFC7019370A11002C080E090E03B
:104040000E94510566CFC7019370A11002C080E0A5
:1040500090E00E9476055DCF6A2D8E2D0E94BF0FE5
:1040600058CF8F2D837091F5A11053CF4E2D4295CF
:1040700046954770440F440F8E2D8F70042E01C05B
:10408000880F0A94EAF72E2D2071E4FE07C02FE076
:1040900030E001C0220F4A95EAF720953F2D369572
:1040A00036953370323069F050F44091400231302F
:1040B00029F0822B84230E94A6092BCF842B822BEC
:1040C000FACF282B809140028227F5CF8695AA202F
:1040D00011F08F2D8170882309F41BCF4E2D42954E
:1040E00046954770440F440F8E2D8F70042E01C0EB
:1040F000880F0A94EAF72E2D2071E4FE07C02FE006
:1041000030E001C0220F4A95EAF720953F2D369501
:1041100036953370323069F050F44091C902313035
:1041200029F0822B84230E94DC10F3CE842B822B77
:10413000FACF282B8091C9028227F5CF2F2D2F701F
:10414000F22EAA2029F0822F0E9425118E2D1ECF3B
:104150008E2D0E944B198F2D0E940111DACE8E2DCB
:1041600032EF8316B1F1381570F090EF8916D1F067
:10417000A1EF8A1691F0AA2009F45EC0911080CEBA
:104180008F2D8F712AC0B3EF8B1651F1E4EF8E1291
:10419000F2CF8091890282FD2FC08F2D8F71AA20CE
:1041A000D9F21BC0AA2081F0F4E0F91508F4B1CED1
:1041B0002F2D2F7181E090E001C0880F2A95EAF73A
:1041C0009091C9028927AFCF25E0291508F4A1CE27
:1041D000EFCF8F2D8F71A110BFCF0E94251199CEE7
:1041E00080E0AA2009F49FCF9F2D9F7181E001C03C
:1041F000880F9A95EAF797CFAA2099F03F2D3F7143
:10420000F32E832F0E9425118091890282FF07C01F
:10421000A8E0FA9EC001112483608093E3028F2DF1
:10422000DCCF81E00E940E11B1E0B91508F071CE2B
:1042300082E00E940E116DCE992059F0893309F069
:10424000EDCEEFEFF7EE23E0E150F0402040E1F754
:10425000E3CE8F2D8F7180CF27E7E2162CE7F20691
:1042600009F49ACD38E7E3163CE7F30609F0A3CD4D
:1042700082E093CDCF93DF9380913502807F09F068
:104280004DC080913402882309F448C0E091860330
:1042900050914D03C0913002D0912F0260913102B4
:1042A0007091320247E05E17C9F18E2F90E0E49FD3
:1042B000F0011124E25BFC4F2481222391F1489FFD
:1042C000F001499FF00D1124DF01A25BBC4F119654
:1042D0002C9111972C1325C02C912D1322C01596CB
:1042E0002C91159721111DC012962D913C91261BE2
:1042F000370B283C3105A8F4809135028F7080611E
:1043000080933502EC5AFC4F80818F7080618083EE
:104310008FE292E00E94091B0E943209DF91CF9147
:104320000895FC013196E770BECFA4E1B0E0EBE95F
:10433000F1E20C94642F8C0186E0F801DE011F96F7
:1043400001900D928A95E1F7F8018481E5809FE262
:10435000A92E92E0B92E90913302911128C08823A2
:1043600019F1EE20F1F0C8010E94B60CF82E882356
:10437000C1F087E0F801D50101900D928A95E1F72F
:1043800080913302813031F480912F02909130027C
:104390000E94A90C0E943A218F2D6496ECE00C94A7
:1043A000802FC8010E94091BFF24F394F5CFD08011
:1043B000C18082809380F09034022091310230914C
:1043C0003202A401421B530BFF2009F4D9C0483C20
:1043D000510508F092C08823F9F290913002809143
:1043E0003502282F207F09F056C0C91214C09091C1
:1043F0002F02D91210C0E11048C08F7080618093E5
:1044000035028FE292E00E94091B80913502F8018B
:104410008683F12CC1CFE11038C06C2D8D2D0E9408
:1044200070036C2D8D2D0E947003E82E8111F1CF49
:10443000DF86C88A8F8598890E94A90C292F22952A
:104440002F70243058F49F70223088F0992399F00F
:10445000F8019681907F79F4FE2C9ECF2A5F2F7011
:10446000223068F0C8010E94091BEF2CF5CF992378
:1044700011F0882389F3805E883070F3F3CF803F9A
:1044800058F3815F833070F7E7CF80913502816008
:1044900080933502BECFC91207C090912F02D91266
:1044A00003C0EE2009F48DC0C8010E94B60C882319
:1044B00009F477CFEE2009F474CF80913502803271
:1044C00088F020912F0230913002398728879B860F
:1044D0008A86909133029C871D868E87CE0108962E
:1044E0000E94091B87E0F801AFE2B2E001900D9253
:1044F0008A95E1F70E943A2157CF90913502292FF2
:10450000207F51F48FE292E00E94091B87E0F501C1
:1045100011928A95E9F77DCF882309F43DCF8091E8
:1045200030028C1110C080912F02D8120CC0E11003
:104530000AC09683C8010E94091B87E0F501119209
:104540008A95E9F729CFC8010E94B60C882309F49F
:1045500028CFEE2009F425CF80913502803210F269
:1045600020912F02309130023A8329839C828B82E2
:10457000909133029D831E828F83CE010196B0CF2E
:10458000483C5105D0F6882309F40ECFFE2CEE20CE
:1045900009F407CF809130028C1120C080912F0246
:1045A000D8121CC08091350280FD0FC0982F907FDB
:1045B00061F08683903F31F0982F907F905F8F70ED
:1045C000892B8683C8010E94091B87E0F801AFE2AE
:1045D000B2E001900D928A95E1F7DECEC8010E940B
:1045E000B60C81117FCF80913502816080933502B6
:1045F000C8010E94091BD0CEABE1B0E0E2E0F3E2DB
:104600000C946C2F4E8B5F8B688F798F8A8F9B8F6A
:10461000192F911110923F021D8A86E0FE017696B5
:10462000DE011F9601900D928A95E1F70A8D002315
:1046300041F021E04F85588969897A89C8010E9433
:10464000D90C0B8B1C8B87E0FE013F96DE01189680
:1046500001900D928A95E1F7CE0108960E9495216E
:1046600081110CC087E0FE013896DE0111960190A1
:104670000D928A95E1F78C8581110BC017E080912E
:10468000860390914D03891333C06B96E4E00C943C
:10469000882F20914D0330E0C9010196877099273A
:1046A000409186034817190699F097E0929FD00130
:1046B000939FB00D1124A25BBC4FFE013196019077
:1046C0000D929A95E1F780934D030E943209D6CF5F
:1046D000109236030E94391610924D0310928603F1
:1046E00087E0EFE2F2E0DF011D928A95E9F7C6CF9D
:1046F000819FC0011124825B9C4F0E9495218823D9
:1047000021F28091860390E001968770992780932B
:104710008603B5CFA6E0B0E0E0E9F3E20C946C2F9D
:104720000E9418058C0180914102909142028017ED
:10473000910781F019821A820E941805682F498119
:104740005A81792F80E090E00E94FC22109342026F
:10475000009341022696E4E00C94882FA2E1B0E099
:10476000E4EBF3E20C94602F4DE4642E41E0742EF0
:1047700050E9E52E53E0F52E68E4C62E61E0D62E12
:10478000512C88248394912CD6018D916D010E9427
:10479000BC0900C0F70140803DE4A32E31E0B32EF8
:1047A000F50110E000E04191A42FA295AF70B0E0B8
:1047B00090968C919401002E01C0220F0A94EAF782
:1047C00090E04F7002C0959587954A95E2F780FD7D
:1047D00092C0422A0F5F1F4F0430110521F7F601E6
:1047E000319780810E94D009F0EAFA95F1F7D7015C
:1047F0008C91841519F04C9255245394BFEFEB1A09
:10480000FB0AEDE4CE16E1E0DE0609F0BDCFEE24B2
:10481000E394F12CD5018D915D010E94BC0900C08B
:10482000C701002E01C0880F0A94EAF7782FE0E94B
:10483000F3E098E4C92E91E0D92E682F6095D60157
:104840002D916D01822F82958F7090E0DC01909602
:104850008C91AF01308190E02F7002C095958795C3
:104860002A95E2F780FD4AC0872F832B80833196FB
:10487000DA018C91381711F0552453946C147D048F
:10488000F1F6F501319780810E94D009B0EABA951E
:10489000F1F70F5F1F4F0830110509F0BBCF0091F2
:1048A0008702552071F181E0809304020E9418056F
:1048B000909303028093020280910202909103027E
:1048C0000E94FD04059708F110E00D551D4F45E0CD
:1048D00050E060E973E0C8010E940D30892B41F07F
:1048E00085E0E0E9F3E0D80101900D928A95E1F7C7
:1048F000109204020AC0209542226CCF862F832397
:10490000B5CF809104028111D7CF0E94380BF82EC9
:10491000E0918702811104C1F0E0ED55FD4F85E083
:10492000A5E4B2E001900D928A95E1F765E070E0B0
:1049300085E492E00E94A9058093440240919F0281
:1049400050E060919E0270E066567D4FCE01019668
:104950000E941A30898180934B0261E070E0CE01A1
:1049600001960E94A90580934A02C0904C02D09003
:104970004D02E0904E02F0904F028091090290911A
:104980000A02A0910B02B0910C02C816D906EA06E1
:10499000FB06D1F0C0920902D0920A02E0920B020B
:1049A000F0920C020E94380B81110EC00E940C057F
:1049B000C61AD70AE80AF90AC0928002D092810288
:1049C000E0928202F09283028CE0E0E5F2E0DE0108
:1049D000119601900D928A95E1F78091500286958B
:1049E000F0905102E0905202D0905302009159028F
:1049F00010915A0290915B0210925A02112321F1F8
:104A000014FD9093290310FF0BC0998190FF82C081
:104A10009091870391609093870360E00E94E40E79
:104A200011FF06C020E04D2D6E2D8F2D0E94120E1D
:104A300012FF05C0002309F470C00E94170D13FF78
:104A400003C081E0809323030E94380B81115DC075
:104A50004091050250910602609107027091080290
:104A60002FB7F8948091310390913203A0913303D2
:104A7000B09134032FBF481759076A077B0709F421
:104A800044C00E940C056093050270930602809357
:104A90000702909308020E94C60A9C0199E0ECE587
:104AA000F2E0DE01119601900D929A95E1F788856A
:104AB0009985009729F02817390711F00E94930A69
:104AC000FE013D9686E0DF011D928A95E9F74D854E
:104AD0005E856F85788989899A890E94F40A2A837C
:104AE0003B834C835D836E837F8366E070E0CE0101
:104AF00002960E94A905898389E0FE013196ACE502
:104B0000B2E001900D928A95E1F7852D6296E0E181
:104B10000C947C2F0E94DD0D83CF0E94C6058FCFA1
:104B200025E933E085E0D9011D928A95E9F70E2F3A
:104B300010E00D551D4F80918F038A3008F045C05D
:104B400064E575E1C8010E94E509882309F45AC0AB
:104B500060EB7AE1C8010E94E509882309F452C09C
:104B600064E574E1C8010E94E509882309F44AC09C
:104B70006BEF73E1C8010E94E509882309F442C084
:104B80006EEF74E1C8010E94E5098823D9F1109203
:104B90008F0381E080930F020091860210E00D5593
:104BA0001D4F45E050E065E973E0C8010E940D30FB
:104BB000892B09F4AACF85E0E5E9F3E0D80101905B
:104BC0000D928A95E1F75F2CA0CF80910D02909114
:104BD0000E020E94FD04843F914008F0B1CF809105
:104BE0000F02882309F491CF10920F02E091860200
:104BF000F0E0ED55FD4F95E0DF011D929A95E9F744
:104C0000582E83CF80918F038F3F31F08F5F809339
:104C10008F038A3008F4BDCF0E94180590930E02CE
:104C200080930D02DCCF1F920F920FB60F921124CA
:104C30002F933F934F935F936F937F938F939F93A4
:104C4000AF93BF93CF93DF93EF93FF93D091E9009E
:104C5000DF708091EC00C82FC17080FDC0E8109219
:104C6000E9008091F000877F8093F00078940E94A3
:104C70005E161092E9008091F00088608093F00049
:104C8000CD2BCF70C093E900FF91EF91DF91CF91D1
:104C9000BF91AF919F918F917F916F915F914F9154
:104CA0003F912F910F900FBE0F901F9018951F925C
:104CB0000F920FB60F9211242F933F934F935F9350
:104CC0006F937F938F939F93AF93BF93EF93FF93D4
:104CD0008091E10082FF09C08091E20082FF05C05F
:104CE0008091E1008B7F8093E1008091DA0080FF6A
:104CF00024C08091D80080FF20C08091DA008E7F90
:104D00008093DA008091D90080FF9DC080E189BD49
:104D100082E189BD09B400FEFDCF81E080934303A9
:104D200080913503811109C00E948F030E943004D5
:104D30008091E20084608093E2008091E10080FF36
:104D400017C08091E20080FF13C08091E2008E7F47
:104D50008093E2008091E20080618093E200809184
:104D6000D80080628093D80019BC85E0809343030B
:104D70008091E10084FF2BC08091E20084FF27C076
:104D800080E189BD82E189BD89B5982F917080FF4E
:104D9000FBCF8091D8008F7D8093D8008091E10077
:104DA0008F7E8093E1008091E2008F7E8093E2000D
:104DB0008091E20081608093E20080914403882327
:104DC00009F447C084E080934303809143038091BA
:104DD000E10083FF27C08091E20083FF23C0809120
:104DE000E100877F8093E10082E08093430310928B
:104DF00044038091E1008E7F8093E1008091E20086
:104E00008E7F8093E2008091E20080618093E200D7
:104E100042E060E080E00E94FE038091F000886044
:104E20008093F000FF91EF91BF91AF919F918F918F
:104E30007F916F915F914F913F912F910F900FBE96
:104E40000F901F90189519BC1092430310923503D0
:104E500074CF8091E30087FD93E090934303B5CF37
:104E600078941F921FB61F9211248F939F93AF9334
:104E7000BF938091310390913203A0913303B0919D
:104E800034030196A11DB11D809331039093320329
:104E9000A0933303B0933403BF91AF919F918F914F
:104EA0001F901FBE1F9018951F921FB61F921124AE
:104EB0008F939F93AF93BF9380913003811113C061
:104EC0008091310390913203A0913303B091340368
:104ED0004196A11DB11D8093310390933203A0939D
:104EE0003303B0933403BF91AF919F918F911F9083
:104EF0001FBE1F901895CDB7DEB7A6970FB6F894D2
:104F0000DEBF0FBECDBF85B7806885BF85B780681F
:104F100085BF84B7877F84BF0FB6F894A89580912A
:104F20006000886180936000109260000FBE80E88E
:104F300090E00FB6F89480936100909361000FBEEB
:104F40008AE197E09093F9018093F8010E948F0322
:104F50000E9430048091E20084608093E2007894A3
:104F6000809143038823A1F01091E9001F70909174
:104F7000EC00892F817090FD80E8182B1092E900D9
:104F80008091E80083FD0E945E161F701093E90077
:104F900082E084BD93E095BD9AEF97BD80936E004B
:104FA000109280021092810210928202109283026B
:104FB0000E94FE0C811102C00E942D0C0E948015DF
:104FC0009091510181E0982790939E02282F291BF0
:104FD000209385029091510180939F0290915101FD
:104FE0008093840283E080935B0124982C9A259817
:104FF0002D9A8FE891E00197F1F700C00000209111
:105000009F0240EA52E0FA018E2F841B821708F4B7
:1050100075C0809151010E94801580914D010E94C0
:10502000D00980914E010E94D00980914F010E94C9
:10503000D009809150010E94D00908E411E0EDE40C
:10504000EE2EE1E0FE2EF80181918F010E94D00941
:10505000E016F106C1F78091510195E0811190E0D1
:105060009093870285E0891B809386020E94380B0B
:10507000811102C00E94FF2DE0E9F3E0A3EAB2E053
:1050800011921D9223E0EA39F207D1F78FE090E008
:105090000E942B306093BE027093BF028093C002C7
:1050A0009093C1020E946E0F0E94A713811102C04B
:1050B0000E94971582E090E00E94233080938B023B
:1050C00084E090E00E9431309093890280938802BE
:1050D0000E94AE238FE39CE90197F1F700C0000026
:1050E0000E94AE238091A30280FF13C06FEF7FEF79
:1050F00090E080E00E9465300E94EC0483B18295CC
:1051000081701D9904C090E0892B81937DCF92E03E
:10511000FBCF83E090E00E9423300E94A60980919B
:10512000C9020E94B01080918A02811178C00E9449
:10513000A713811104C00E9497150E94520F88E0A6
:1051400090E00E942B304B015C0184E290E00E94D1
:105150002330282F30E040E050E060E070E080E055
:1051600090E000E20E94CA2F282939294A295B29A8
:1051700020938703309388034093890350938A03D5
:1051800060938B0370938C0380938D0390938E03B5
:10519000809128038360809328032E7F89F50E94E5
:1051A000520F88E090E00E942B306B017C0184E27A
:1051B00090E00E942330282F30E040E050E060E093
:1051C00070E080E090E00E94CA2FB22FA32FF42F4E
:1051D000E52F5B0197018601BC29A12BFE29E32B5A
:1051E000B0938703A0938803F0938903E0938A0325
:1051F00060938B03B0928C0380938D0390938E0306
:105200000E94CD050E94C6058091870380FF04C0DF
:1052100060E086950E94E40E81E080938A020E94FD
:10522000380B811102C00E94FF2D0E94380B8111A2
:1052300002C00E941F0BE091BE02F0E0EE0FFF1FC4
:10524000E655FE4F808191810E946C0B82E591E0D2
:1052500090932D0380932C0358E1E52EF12C60E40C
:10526000762E7DEAC72E72E0D72E8091430300E1AF
:1052700012E1853009F484C00E94AE233CE8A32EDD
:1052800032E0B32EA3EAB2E0F50191918D9122E0D4
:10529000E639F20709F480C09817B9F30E94380B79
:1052A000382E23EA822E22E0922E10E0222423942C
:1052B000F40101914F01F50141905F01401629F180
:1052C0004026612C55245394842D8521B1F0332040
:1052D000A1F069A21AA30E9418059CA38BA32DA27A
:1052E00091E0802F852109F490E09EA349A15AA165
:1052F0006BA17CA18DA10E94FC226394550CF8E067
:105300006F12E2CFF501319700831F5F1A3081F6EB
:105310000E947E0B45C080914303843019F10E94A6
:105320003111109230030FB6F894A895E092600006
:105330000FBE7092600083B7817F846083BF83B7A4
:10534000816083BF7894889583B78E7F83BF0FB6C3
:10535000F894A89580916000886180936000109215
:1053600060000FBE80914203882351F00E94AE235B
:10537000E3EAF2E081918111BAC3CE16DF06D1F7DC
:1053800080914303853009F4C6CF109236030E9402
:1053900039160E945B0B70CF981380CF0E948A232E
:1053A0000E94380B80912703882309F464C0809100
:1053B0002603E0918703E695E81BE0932203823001
:1053C00009F073C1F0E0ED57FD4FE4910E2F10E0AE
:1053D00096E9A92E9DE0B92E80912303882361F0E0
:1053E000109223030E949B0B909321038093200330
:1053F00010922503109224030E949B0BE09120033E
:10540000F09121039C012E1B3F0B2F3F3F4798F546
:10541000209199022223B1F01092990220919702D3
:1054200030919802821B930B8F3F9F4758F4205D69
:105430003A4830939802209397028091280388601D
:105440008093280380902403909025030E0F1F1F44
:10545000109321030093200380E293E0F501099566
:105460008091240390912503892B29F4892819F030
:1054700081E08093990280919602882361F01092D6
:10548000960280912703811106C08091870360E016
:1054900086950E94E40EA12C612C80919F02A81693
:1054A00008F40AC161100E94980B0E943111811109
:1054B0000E947E0B86E0EAECF2E0DE01119601909C
:1054C0000D928A95E1F71092CC021092CD021092C3
:1054D000CE021092CF021B810C81812F802B09F408
:1054E00045C08091B2029091B3020E94FD049C01DC
:1054F0009091AD02992309F420C325313105B0F113
:105500009F3F19F09F5F9093AD02112359F00E94C5
:10551000EC069FEF11160CF491E0899F802D112469
:105520008093CC02002359F00E94EC069FEF1016E6
:105530000CF491E0899F802D11248093CD028091FD
:10554000CC02882399F01091CD02112379F00E94AA
:105550000C07882309F420C18093CC02812F0E947C
:105560000C07882309F41AC18093CD021D810E8196
:10557000812F802B09F445C08091B0029091B10237
:105580000E94FD049C019091AE02992309F4D0C2BF
:1055900021353105B0F19F3F19F09F5F9093AE0226
:1055A000112359F00E94CA069FEF11160CF491E0E6
:1055B000899F802D11248093CE02002359F00E94F0
:1055C000CA069FEF10160CF491E0899F802D1124DC
:1055D0008093CF028091CE02882399F01091CF0260
:1055E000112379F00E940C07882309F4D9C0809315
:1055F000CE02812F0E940C07882309F4D3C0809328
:10560000CF02BE016F5F7F4F8AEC92E00E942405BB
:1056100081110CC08091CC029091CD02892B909188
:10562000CE02892B9091CF02892B11F00E94AE06F9
:1056300086E0FE013196AAECB2E001900D928A95C7
:10564000E1F70E945B0B9091A202891721F08093F1
:10565000A2020E940C0580914303843009F005CE1C
:1056600083E08093E9008091E80082FFFECD809185
:10567000E80090E085FF06C00E94AE03882309F48D
:1056800093C091E08091E8008B778093E8009923A4
:1056900009F4EBCD8981EFEFE80FE33108F0ABC0FF
:1056A000F0E0E350FC4C0C94BD2F00ED17E085ECCE
:1056B000A82E85E0B82E90CE0A2D10E0E3B1E29539
:1056C000E1701D9961C080E08E2BD801A056BD4FBE
:1056D000EC919E2F9370891709F454C0EE0FEE0FD2
:1056E000E82BEC93D801A65ABE4F8C90B0909E0246
:1056F000BA0CEF70F0E0EC54FE4F04561D4F808161
:10570000F8019081890F8083912C082E000C990B51
:10571000512C8815990584F0EB2DF0E0E656FD4FED
:1057200080818F5F80830E94380B582E882371F10F
:1057300060E08B2D0E94571AF8018081082E000C22
:10574000990B22273327281939092817390784F09C
:10575000EB2DF0E0E656FD4F8081815080830E9462
:10576000380B582E8823A9F061E08B2D0E94571A20
:10577000F8018081082E000C990BB4010E94A92F1A
:1057800080836528A39489CE82E09ECF55245394CC
:10579000D3CF55245394ECCF81E0DECE81E0E4CE2C
:1057A00081E025CF81E02BCF00E210E0CE01019611
:1057B0005C018091E80085FD0AC08091E8008B774C
:1057C0008093E8000E94AE03882399F35ACF80911A
:1057D000F100F50181935F010150110951F751CF9B
:1057E0001A828CE08B831BC08A81823009F497C1B6
:1057F00028F4813061F08FEF898311C08330C1F0CC
:105800008430C9F71B821C821D821E8208C00E9440
:105810000C050E94C32F6B837C838D839E8340E2A3
:1058200050E0BE016F5F7F4F82E00E94180A1DCDDD
:105830002B81822F90E0FE013496245E8A30910500
:1058400070F7DC01AD55BD4F3C91319301962813A3
:10585000F5CFE5CF8A81823049F0853061F68091BD
:10586000870380FF0EC00E94DD0DD9CF6B817C8144
:105870008D819E810E94C32F88E290E00E94473074
:10588000CECF81608093870360E086950E94E40E0E
:10589000C6CF4C816B818A810E943D0C9827892755
:1058A00098279E838D83BBCF2D813E81322723276E
:1058B00032274C816B818A810E94B60BB0CF0E9447
:1058C000DC0BADCF9A81923009F095CF8830D9F1B9
:1058D000893009F463C08B81823009F1A8F48130EA
:1058E00009F09DCF8C81FFEF8F9FC00111246FEFD6
:1058F00070E00E94952F462F20E0609189038091EF
:1059000088030E94120E8BCF8330C9F0843009F0D7
:1059100086CF20E040918A036D818C81F2CF8C810B
:10592000882309F4A0CF8091870381608093870347
:1059300060E086950E94E40E60E08C81A7CF8C81A8
:1059400080938B036CCF8B818230E1F078F48130CF
:1059500009F065CF80918A032FEF829FC001112447
:105960006FEF70E00E94952F6C8359CF833099F0D0
:10597000843009F054CF809188038C83809189030F
:105980008D834DCF8091870380FF03C086958C83E4
:1059900046CF80E0FCCF80918B03F9CF2091870325
:1059A000309188034091890350918A0360918B0361
:1059B00070918C0380918D0390918E030E94EC0D69
:1059C0002ECF80E18A832BCF81E08A8387E50ACFBF
:1059D0000A811B81102701271027CE0101964C0157
:1059E000AC80FC01EA0DF11D5F01C80187559D4F98
:1059F000A814B90409F413CF0735F1E01F0750F4D8
:105A00000E942330F40184830F5F1F4FFFEF8F1A32
:105A10009F0AEBCFF4011482F7CF0A811B81102774
:105A200001271027CE0101964C01AC80A00EB12EAB
:105A3000B11CC80187559D4F0A151B0509F4EFCE0F
:105A40000735E1E01E0720F4F40164810E9447302D
:105A5000FFEF8F1A9F0A0F5F1F4FEBCF0E94A60B1D
:105A6000DECE84E0AFCF0A811B81102701271027EB
:105A7000CE0101964C01AC80FC01EA0DF11D5F01E5
:105A8000C8018996A814B90409F4C9CE0038F2E017
:105A90001F0750F40E942330F40184830F5F1F4FCF
:105AA000FFEF8F1A9F0AECCFF4011482F7CF0A811F
:105AB0001B81102701271027CE0101964C01AC80D5
:105AC000A00EB12EB11CC8018996A016B10609F42A
:105AD000A6CE0038E2E01E0720F4F40164810E94A3
